:020000040000FA
:100000000C9462000C948A000C948A000C948A0070
:100010000C948A000C948A000C948A000C948A0038
:100020000C948A000C948A000C948A000C948A0028
:100030000C948A000C948A000C948A000C948A0018
:100040000C94C7060C948A000C9437070C94110783
:100050000C948A000C948A000C948A000C948A00F8
:100060000C9469070C948A0000000000240027000B
:100070002A0000000000250028002B0000000000DE
:1000800023002600290004040404040404040202DA
:100090000202020203030303030301020408102007
:1000A0004080010204081020010204081020000012
:1000B0000008000201000003040700000000000027
:1000C0000000880811241FBECFEFD8E0DEBFCDBFEF
:1000D00023E0AEEFB1E001C01D92A93EB207E1F707
:1000E00011E0A0E0B1E0EAEDFEE102C005900D9262
:1000F000AE3FB107D9F710E0C2E6D0E004C02197C7
:10010000FE010E94730DC136D107C9F70E943B0959
:100110000C946B0F0C94000096E0899FD001112481
:10012000AA58BC4F90967C936E935F9791E09196FE
:100130009C939197E091E303F091E4039091E203A3
:10014000992339F0309751F0811108C080919203C2
:100150000994309719F05C968C91FACF0895CF925C
:10016000DF92EF92FF920F931F9396E0899FF00129
:100170001124EA58FC4F11A2278D30A121303105FE
:1001800051F178F02230310509F451C023303105A6
:1001900009F452C01F910F91FF90EF90DF90CF9024
:1001A00008956623B9F361E070E00E948C002FB7D8
:1001B000F8948091BD029091BE02A091BF02B091CF
:1001C000C0022FBF8093CE039093CF03A093D003A0
:1001D000B093D103DFCF9FB7F894C090BD02D09009
:1001E000BE02E090BF02F090C0029FBF0091CE031C
:1001F0001091CF032091D0033091D103C01AD10ABE
:10020000E20AF30A0091E0031091E10330E020E0FC
:100210000C151D052E053F0550F462E070E01F919E
:100220000F91FF90EF90DF90CF900C948C006111B4
:10023000B1CF63E070E0F3CF70E060E0F0CF8330E7
:1002400081F028F4813099F08230A9F00895873048
:10025000A9F08830C9F08430B1F4809180008F7D9E
:1002600003C0809180008F7780938000089584B5CB
:100270008F7784BD089584B58F7DFBCF8091B000CA
:100280008F778093B00008958091B0008F7DF9CF73
:10029000CF93DF93282F30E0F901E255FF4F84918F
:1002A000F901E656FF4FD491F901EA57FF4FC49187
:1002B000CC23A1F081110E941F01EC2FF0E0EE0F82
:1002C000FF1FE458FF4FA591B491EC91ED2381E01D
:1002D00090E009F480E0DF91CF91089580E090E014
:1002E000FACF1F93CF93DF93282F30E0F901E25527
:1002F000FF4F8491F901E656FF4FD491F901EA5777
:10030000FF4FC491CC23A9F0162F81110E941F0129
:10031000EC2FF0E0EE0FFF1FEE58FF4FA591B491C8
:100320008FB7F894EC91111108C0D095DE23DC93BF
:100330008FBFDF91CF911F910895DE2BF8CFCF9320
:10034000DF9390E0FC01E656FF4F24918A579F4FC0
:10035000FC0184918823C9F090E0880F991FFC016B
:10036000E859FF4FA591B491FC01EE58FF4FC5919C
:10037000D49161110DC09FB7F8948C912095822380
:100380008C938881282328839FBFDF91CF91089584
:10039000623051F49FB7F8943C91822F809583236B
:1003A0008C93E8812E2BEFCF8FB7F894EC912E2B06
:1003B0002C938FBFEACF3FB7F8948091B902909108
:1003C000BA02A091BB02B091BC0226B5A89B05C0A1
:1003D0002F3F19F00196A11DB11D3FBFBA2FA92FC4
:1003E000982F8827BC01CD01620F711D811D911DC1
:1003F00042E0660F771F881F991F4A95D1F708952D
:100400008F929F92AF92BF92CF92DF92EF92FF9224
:100410004B015C010E94DB016B017C010E94DB014E
:100420006C197D098E099F09683E7340810591050D
:10043000A8F321E0821A9108A108B10888EEC80E3D
:1004400083E0D81EE11CF11C81149104A104B104C5
:1004500029F7FF90EF90DF90CF90BF90AF909F90E3
:100460008F900895862F642F0C949F01862F642F00
:100470000C947101862F0C94480108950895AF9251
:10048000BF92CF92DF92EF92FF920F931F93CF9381
:10049000DF936C017B018B01040F151FEB015E01E3
:1004A000AE18BF08C017D10759F06991D601ED9178
:1004B000FC910190F081E02DC6010995892B79F717
:1004C000C501DF91CF911F910F91FF90EF90DF90C9
:1004D000CF90BF90AF900895FC0144815581608119
:1004E00071818AE693E00C943F02FC01538D448DA8
:1004F000252F30E0842F90E0821B930B541710F0CF
:10050000CF96089501970895FC01918D828D9817DB
:1005100061F0A28DAE0FBF2FB11D5D968C91928DB3
:100520009F5F9F73928F90E008958FEF9FEF0895E4
:10053000FC01918D828D981731F0828DE80FF11DAD
:10054000858D90E008958FEF9FEF0895FC01918DC8
:10055000228D892F90E0805C9F4F821B91098F73C1
:100560009927089581EC92E00E94A60221E0892B50
:1005700009F420E0822F089580E090E0892B29F093
:100580000E94B20281110C9400000895FC01A48D18
:10059000A80FB92FB11DA35ABF4F2C91848D90E0A5
:1005A00001968F739927848FA689B7892C93A08988
:1005B000B1898C91837080648C93938D848D981312
:1005C00006C00288F389E02D80818F7D80830895A5
:1005D000EF92FF920F931F93CF93DF93EC0181E093
:1005E000888F9B8D8C8D98131AC0E889F98980813A
:1005F00085FF15C09FB7F894EE89FF896083E8896D
:10060000F98980818370806480839FBF81E090E05E
:10061000DF91CF911F910F91FF90EF900895F62EEB
:100620000B8D10E00F5F1F4F0F731127E02E8C8D85
:100630008E110CC00FB607FCFACFE889F9898081CA
:1006400085FFF5CFCE010E94C602F1CFEB8DEC0FF6
:10065000FD2FF11DE35AFF4FF0829FB7F8940B8FE7
:10066000EA89FB8980818062CFCFCF93DF93EC0151
:10067000888D8823B9F0AA89BB89E889F9898C918A
:1006800085FD03C0808186FD0DC00FB607FCF7CF46
:100690008C9185FFF2CF808185FFEDCFCE010E9446
:1006A000C602E9CFDF91CF91089520916602260F0F
:1006B0003327331F21323105ECF420918A02FC01EB
:1006C00090E080E0243069F082E00895A091660215
:1006D0002191AC014A5B5D4FA40FB52FB11D2C9346
:1006E0000196861798F380916602680F6093660200
:1006F00080E0089581E0089510928A0281E080935D
:100700008C0210928B0261E082E10E94710161E033
:1007100083E10E947101E9EBF0E080818E7F8083AC
:1007200080818D7F808388E48093B80085E4809306
:10073000BC000895CF93DF9391E090934502882306
:10074000B9F0C091B800D091BA008091BC008A7B0A
:100750008093BC0060E082E10E94710160E083E16F
:100760000E9471010E947C03D093BA00C093B8002C
:10077000DF91CF9108950895E091B7028091B6027C
:10078000E81730F4F0E0E05EFD4F808190E00895DE
:100790008FEF9FEF08959091B7028091B6022FEFEF
:1007A0003FEF981748F4E92FF0E0E05EFD4F20811D
:1007B00030E09F5F9093B702C90108958091B6021F
:1007C0009091B702891B990B0895CF92DF92EF9217
:1007D000FF920F931F93CF93DF937C01CB018A018C
:1007E00020911F02222389F0EB016B01C40ED51E5C
:1007F000CC15DD0569F06991D701ED91FC9101906F
:10080000F081E02DC7010995F3CF642F0E945503B5
:10081000C801DF91CF911F910F91FF90EF90DF9072
:10082000CF900895CF93DF931F92CDB7DEB7698342
:1008300020911F022223F9F02091B402203258F0B7
:1008400021E030E0FC013383228390E080E00F90D0
:10085000DF91CF9108958091B502E82FF0E0E1504B
:10086000FE4F998190838F5F8093B5028093B4028D
:1008700081E090E0ECCF61E0CE0101960E9455034B
:10088000F7CFCF92DF92EF92FF920F931F93CF9308
:10089000DF93FC01C48121E020931F02C093FE017D
:1008A0001092B5021092B4028385682B8EE593E016
:1008B0000E941204D091B402D13208F092C00E947A
:1008C000DB016B017C0180918A02811165C082E0AD
:1008D00080938A0281E080938C028FEF809389025B
:1008E0001092AE02D093AD02AFEFB1E0EDE8F2E0CE
:1008F00080E0D81385C01092AF028091AF02CC0F78
:10090000C82BC093AF0280918B02813009F07CC06C
:1009100010928B020E94DB016B017C018091AF027F
:100920008093BB008091410290914202A0914302CA
:10093000B0914402892B8A2B8B2B99F00E94DB010A
:1009400000914102109142022091430230914402F1
:100950006C197D098E099F090617170728073907A3
:10096000E0F18091BC0083FDD9CF85EC8093BC0081
:100970000E94DB016B017C0180918A02823009F4C4
:1009800045C0809189028F3F61F180918902803258
:1009900041F18091890225C08091410290914202EB
:1009A000A0914302B0914402892B8A2B8B2B09F42E
:1009B0008ACF0E94DB0100914102109142022091F6
:1009C0004302309144026C197D098E099F09061774
:1009D00017072807390708F076CF809140020E9458
:1009E0009A031092B5021092B40210921F02DF9186
:1009F000CF911F910F91FF90EF90DF90CF900895CE
:100A00009D9191938F5F75CF85EEB0CF809141021C
:100A100090914202A0914302B0914402892B8A2B0B
:100A20008B2B09F4A9CF0E94DB01009141021091A8
:100A3000420220914302309144026C197D098E09D3
:100A40009F09061717072807390708F095CFC5CF64
:100A5000089590E080E00895FC0101900020E9F7FE
:100A60003197AF01481B590BBC018AE693E00C9407
:100A70003F020F931F93CF93DF93EC0188819981FD
:100A8000009759F02A813B812617370730F081E023
:100A9000DF91CF911F910F9108958B016F5F7F4F71
:100AA0000E949E0E009759F0998388831B830A83C6
:100AB0002C813D81232B59F7FC011082E8CF80E087
:100AC000E7CFCF93DF93EC0188819981009711F0F4
:100AD0000E94150E198218821D821C821B821A82A6
:100AE000DF91CF910895EF92FF920F931F93CF93D1
:100AF000DF93EC017B018A01BA010E943905811163
:100B00000BC0CE010E946105CE01DF91CF911F91F4
:100B10000F91FF90EF9008951D830C83B70188819A
:100B200099810E94640FF0CFFC0111821082138220
:100B3000128215821482FB0101900020E9F731979F
:100B4000AF01461B570B0C947305FC01808191810A
:100B5000009711F00C94150E0895FB01DC0111961D
:100B60001C921E9213961C921E92129715961C921E
:100B70001E9214978617970749F06081718161155D
:100B8000710521F0448155810C94730508950F93EC
:100B90001F93CF938C01C62F0E9441046C2F646079
:100BA000C8010E9441046C2F6B7FC8010E94410460
:100BB00083EC90E00197F1F7CF911F910F91089589
:100BC0000F931F93CF93DF938C01D62FC42F607F99
:100BD000642B0E94C70580E1D89FB00111246C2BC3
:100BE000C801DF91CF911F910F910C94C705CF934E
:100BF000DF93CDB7DEB728970FB6F894DEBF0FBEF0
:100C0000CDBF98E0EEE1F1E0DE01119601900D928A
:100C10009A95E1F790917203961710F46FEF690FB0
:100C2000262F30E0220F331F41E050E04C0F5D1FB4
:100C3000240F351FF9016081680F606840E08AE683
:100C400093E028960FB6F894DEBF0FBECDBFDF91BC
:100C5000CF910C94E00540E061E08AE693E00E94C9
:100C6000E0058BE39FE10197F1F70895CF93DF93C0
:100C7000CDB7DEB72C970FB6F894DEBF0FBECDBF51
:100C80000E942B0660E671E0CE0107960E94940553
:100C9000BE01695F7F4FCE0101960E94AD052D8197
:100CA0003E8184E190E0821B930B9695879560E0EE
:100CB0000E94F705CE0101960E94A505CE01079678
:100CC0000E946C0261E080E00E94F70581E791E0FC
:100CD0000E942C0562E080E00E94F7058DE791E01C
:100CE0000E942C0563E080E00E94F70589E891E00E
:100CF0000E942C05CE0107960E94A50590E080E099
:100D00002C960FB6F894DEBF0FBECDBFDF91CF910A
:100D1000089541E00E94E00581E090E0089585EDAE
:100D20008093BC008091410290914202A0914302C5
:100D3000B09144020796A11DB11D23E0B695A79579
:100D4000979587952A95D1F72091BC0024FD03C083
:100D500010928A020895409141025091420260919E
:100D6000430270914402452B462B472B69F30097B1
:100D7000A105B10541F02AE22A95F1F700C00197DB
:100D8000A109B109E1CF809140020C949A031F920E
:100D90000F920FB60F9211242F933F938F939F932F
:100DA000AF93BF938091BD029091BE02A091BF020C
:100DB000B091C0023091B80223E0230F2D3758F5CF
:100DC0000196A11DB11D2093B8028093BD0290939E
:100DD000BE02A093BF02B093C0028091B90290916D
:100DE000BA02A091BB02B091BC020196A11DB11D37
:100DF0008093B9029093BA02A093BB02B093BC0255
:100E0000BF91AF919F918F913F912F910F900FBE06
:100E10000F901F90189526E8230F0296A11DB11D73
:100E2000D2CF1F920F920FB60F9211242F933F93A0
:100E30004F935F936F937F938F939F93AF93BF93E2
:100E4000EF93FF9381EC92E00E94C602FF91EF9135
:100E5000BF91AF919F918F917F916F915F914F91D2
:100E60003F912F910F900FBE0F901F9018951F92DA
:100E70000F920FB60F9211242F938F939F93EF939E
:100E8000FF93E091D102F091D2028081E091D702EC
:100E9000F091D80282FD1BC090818091DA028F5FB1
:100EA0008F732091DB02821741F0E091DA02F0E0CB
:100EB000EF53FD4F958F8093DA02FF91EF919F9151
:100EC0008F912F910F900FBE0F901F9018958081DA
:100ED000F4CF1F920F920FB60F9211242F933F93CE
:100EE0004F935F936F937F938F939F93AF93BF9332
:100EF000EF93FF938091B900887F803609F44AC050
:100F0000F0F5883209F4A7C018F5803109F49BC0C8
:100F1000B8F4882309F4F9C0883009F494C0FF912B
:100F2000EF91BF91AF919F918F917F916F915F9161
:100F30004F913F912F910F900FBE0F901F901895DA
:100F4000883109F488C0803251F78093890214C037
:100F5000803409F49DC040F48033B9F38833F9F646
:100F60008093890285ECB0C0803509F485C088354E
:100F700009F496C0883499F60E948F06D0CF88393C
:100F800009F48CC038F5883729F050F4883611F010
:100F9000803729F683E080938A021092880257C036
:100FA000883809F47BC0803919F0803809F0B7CF50
:100FB00080918802803208F071C0E091880281E05F
:100FC0008E0F809388028091BB00F0E0E859FD4FBE
:100FD00080833DC0803B39F0E0F4803A09F479C069
:100FE000883A09F09CCF84E080938A0210926702CD
:100FF00010926602E091B202F091B30209958091DD
:10100000660281110FC081E0809366021092460251
:1010100009C0803C09F4A6CF883C09F4A3CF883BE3
:1010200009F07DCFE091670281E08E0F8093670227
:10103000F0E0EA5BFD4F80818093BB0090916702F6
:101040008091660229C08091AF028093BB0085EC3D
:101050008093BC0064CF9091AE028091AD0298174E
:1010600058F5E091AE0281E08E0F8093AE02F0E081
:10107000E357FD4F8081E9CFE091AE0281E08E0F12
:101080008093AE028091BB00F0E0E357FD4F808378
:101090009091AE028091AD029817C8F285E8D8CF42
:1010A000E091AE0281E08E0F8093AE028091BB0092
:1010B000F0E0E357FD4F808380918C0281115CCF7B
:1010C00081E080938B0284EA8093BC0010928A02B4
:1010D00026CF85EC8093BC0010928A028091880212
:1010E000803230F4E0918802F0E0E859FD4F108240
:1010F0006091880270E0E091B002F091B10288E660
:1011000092E00995109288020ACF1092890234CF9A
:101110001092C4021092C30288EE93E0A0E0B0E007
:101120008093C5029093C602A093C702B093C802F1
:101130002AE231E03093C2022093C10225EC30E074
:101140003093CE022093CD0224EC30E03093D002D5
:101150002093CF0220EC30E03093D2022093D102D2
:1011600021EC30E03093D4022093D30222EC30E023
:101170003093D6022093D50226EC30E03093D8028B
:101180002093D7021092DA021092DB021092DC0256
:101190001092DD021092610310926003809362034B
:1011A00090936303A0936403B09365038CE391E091
:1011B00090935F0380935E031092780310927C03F8
:1011C00010927B0310927D038AE591E09093770360
:1011D00080937603E2E9F3E0108214821382158291
:1011E000369683E0EE3CF807B9F784E091E09093FF
:1011F000D9038093D80380E091E09093DB03809340
:10120000DA0384E08093DC038093DD0328E031E09F
:101210003093D7032093D6032AE030E03093DF03E6
:101220002093DE0324EF31E03093E1032093E003C9
:101230001092E4031092E3031092D2031092D303AE
:101240001092D4031092D5031092E20310926D0312
:1012500010926C032EE431E030936B0320936A0309
:1012600098E390936E0394E19093730380937403D7
:10127000109275030895CF93DF93CDB7DEB7AA9789
:101280000FB6F894DEBF0FBECDBF789484B58260F0
:1012900084BD84B5816084BD85B5826085BD85B51A
:1012A000816085BD80916E00816080936E00109298
:1012B0008100809181008260809381008091810013
:1012C00081608093810080918000816080938000A4
:1012D0008091B10084608093B1008091B000816002
:1012E0008093B00080917A00846080937A0080912E
:1012F0007A00826080937A0080917A008160809386
:101300007A0080917A00806880937A001092C10000
:10131000E091D102F091D20282E08083E091CD028F
:10132000F091CE021082E091CF02F091D0028FECCA
:1013300080831092D902E091D502F091D60286E026
:101340008083E091D302F091D40280818061808318
:10135000E091D302F091D402808188608083E09193
:10136000D302F091D402808180688083E091D3021F
:10137000F091D40280818F7D80831092B702109209
:10138000B6021092B5021092B4020E947C038DE363
:1013900092E09093B3028093B2028EE392E0909336
:1013A000B1028093B00210926F0380917403823077
:1013B00018F098E090936F038093720362E370E0FB
:1013C00080E090E00E940002609175038AE693E05D
:1013D0000E94410468EE73E080E090E00E94000209
:1013E00060E38AE693E00E94C7050BE416E4C801B7
:1013F0000197F1F760E38AE693E00E94C705C80110
:101400000197F1F760E38AE693E00E94C70583E560
:1014100092E00197F1F760E28AE693E00E94C70547
:1014200060916F03606240E08AE693E00E94E0050D
:1014300084E08093700340E06CE08AE693E00E94D1
:10144000E0050E942B0682E08093710340E066E095
:101450008AE693E00E94E00540E062E08AE693E0DD
:101460000E94E0058BE39FE10197F1F788E080930C
:10147000750360E08AE693E00E9441040E9436060C
:10148000412C512C320143948E010F5F1F4F81E09C
:101490008093E2038FB7F8944091BD025091BE0251
:1014A0006091BF027091C0028FBF8091D203909172
:1014B000D303A091D403B091D503481B590B6A0BF9
:1014C0007B0B8091DE039091DF03B0E0A0E08417F6
:1014D0009507A607B70708F061C1F12C8091DC03DE
:1014E000F81660F4E091D803F091D903EF0DF11DE7
:1014F00062E080810E949F01F394F0CF312C8091B3
:10150000DD03381608F062C0E32CF12CE091DA0319
:10151000F091DB03EE0DFF1D61E080810E949F01D1
:10152000E091DA03F091DB03EE0DFF1D60E08081B6
:101530000E947101D301C201032C04C0880F991FBE
:10154000AA1FBB1F0A94D2F74C015C01A094B0946F
:10155000212C8091DC03281610F5C22CD12CE091AF
:10156000D803F091D903EC0DFD1D80810E94480144
:1015700096012C5F3F4FF901EE0FFF1FEA58FC4F19
:10158000892B41F4808191818829992991838083D5
:101590002394DFCF808191818A219B21F7CFE09135
:1015A000DA03F091DB03EE0DFF1D61E080810E9404
:1015B00071018091DA039091DB03E80EF91E60E07F
:1015C000F70180810E949F01339499CFF6E7EF2EB7
:1015D000F3E0FF2E6701F601878D90A1892B31F48E
:1015E000148E2FEF3FEF368F258F11A236E0C30EFA
:1015F000D11C82EB93E08C159D0569F7B12C80918D
:10160000DC03B81608F053C0A12C8B2C912C880C4D
:10161000991CF401E258FC4F4F012091DD03A21602
:1016200008F043C0F401608171810A2C02C07695F4
:1016300067950A94E2F7B29E900111242A0D311D9C
:10164000E6E7F3E080E0458D568D2417350709F471
:10165000B4C18F5F36968A30B1F760FF24C0E6E7E9
:10166000F3E090E080E0448D411118C0E091D60392
:10167000F091D703E20FF31F408156E0589FF0012D
:10168000599FF00D1124EA58FC4F448F368F258F57
:1016900010A2178E61E00E94AF0005C00196369639
:1016A0008A30910501F7A394B8CFB394A8CF80E016
:1016B000F70191A19111892FF6E0EF0EF11CEC14C6
:1016C000FD04B1F79FB7F8944091BD025091BE025E
:1016D0006091BF027091C0029FBF4093D2035093AC
:1016E000D3036093D4037093D503882309F456C0C1
:1016F00080919703882309F451C0809195039091BC
:101700009603019709F04AC0809192038A3009F448
:1017100047C0823309F43EC10CF04FC0813309F059
:101720003FC00E942B0665E771E0CE0143960E9400
:101730009405BE016D5E7F4FC8010E94AD052D81ED
:101740003E8184E190E0821B930B9695879560E043
:101750000E94F705C8010E94A505CE0143960E948C
:101760006C0261E080E00E94F70580EB91E00E944E
:101770002C0562E080E00E94F70581EC91E00E9478
:101780002C0563E080E00E94F70586ED91E00E9461
:101790002C05CE0143960E94A50502C01092E203DB
:1017A00080E090E0892B09F472CE0E94B202882377
:1017B00009F46DCE0E9400006ACE833329F0843490
:1017C00079F70E943606ECCF58EBC52E5BE0D52E9C
:1017D00068EE262E63E0362E74E1872E912C1C8A4B
:1017E0001B8A1E8A1D8A188E1F8AC601B1010E949B
:1017F0004B0DCB014AE0B8010E94DF0CF8010190CB
:101800000020E9F73197AF01401B510BB801CE0121
:1018100043960E947305BE016D5E7F4FC8010E9412
:10182000AD05ED80FE802FEFE21AF20AB701C80184
:101830000E94390581119DC0C8010E946105B8014F
:10184000CE0185960E94AD05C8010E94A505CE0176
:1018500043960E94A505BE016B5D7F4FCE014F965A
:101860000E94AD050E942B066AE971E0CE014996FF
:101870000E94940567EA71E0C8010E949405AF8C4C
:10188000B8A0A114B10409F481C0EBA0FCA0E1143C
:10189000F104B1F08D819E81E80EF91EB701C801F7
:1018A0000E943905882309F471C029813A818D810C
:1018B0009E81B501820F931F0E94640FFE82ED820C
:1018C000B801CE0143960E94AD05C8010E94A5054E
:1018D000BE01675E7F4FC8010E94AD058D819E816C
:1018E000F401E81BF90BCF019695879561E00E9402
:1018F000F705C8010E94A505CE0149960E946C0219
:10190000BE016D5E7F4FC8010E94AD058D819E8135
:101910009401281B390BC9019695879562E00E94B6
:10192000F705C8010E94A505CE0143960E946C02EE
:10193000CE0143960E94A505CE0149960E94A505B9
:10194000CE014F960E94A50568EE73E080E090E01E
:101950000E940002CE0185960E94A50538EEC31AAA
:1019600033E0D30A58E1C5165CEFD50609F037CF4E
:1019700028CF29813A818D819E8168E971E0820FAB
:10198000931F0E94640FFE82ED8259CFC8010E940E
:10199000610596CF0E942B0661E080E00E94F7056A
:1019A00081EE91E00E942C0562E080E00E94F70544
:1019B0008FEE91E00E942C05F3CE61706CCEBB27B8
:1019C0004A3031F4992322F4BDE2909581959F4FDE
:1019D0000C94EB0CBB27FB015527AA27880F991FF6
:1019E000AA1FA41710F0A41B83955051B9F7A05D4E
:1019F000AA3308F0A95DA193009779F7B111B193CB
:101A00001192CB010C94040DDC01FC01672F719144
:101A10007723E1F7329704C07C916D9370836291D4
:101A2000AE17BF07C8F308952F923F924F925F926F
:101A30006F927F928F929F92AF92BF92CF92DF92DE
:101A4000EF92FF920F931F93CF93DF93CDB7DEB743
:101A5000CA1BDB0B0FB6F894DEBF0FBECDBF0994D7
:101A60002A88398848885F846E847D848C849B842E
:101A7000AA84B984C884DF80EE80FD800C811B813C
:101A8000AA81B981CE0FD11D0FB6F894DEBF0FBE6B
:101A9000CDBFED01089597FB072E16F4009407D0F3
:101AA00077FD09D00E945F0D07FC05D03EF49095AC
:101AB00081959F4F0895709561957F4F0895AA1B5A
:101AC000BB1B51E107C0AA1FBB1FA617B70710F029
:101AD000A61BB70B881F991F5A95A9F7809590955B
:101AE000BC01CD010895EE0FFF1F0590F491E02D8C
:101AF00009940F931F93CF93DF938230910510F4D5
:101B000082E090E0E091E703F091E80330E020E02C
:101B1000B0E0A0E0309799F42115310509F44AC0EE
:101B2000281B390B24303105D8F58A819B8161153A
:101B3000710589F1FB0193838283FE0111C040810D
:101B400051810281138148175907E0F0481759075E
:101B500099F4109761F012960C93129713961C93B8
:101B60003296CF01DF91CF911F910F91089500938D
:101B7000E7031093E803F4CF2115310551F0421724
:101B8000530738F0A901DB019A01BD01DF01F8011B
:101B9000C1CFEF01F9CF9093E8038093E703CDCF56
:101BA000FE01E20FF31F8193919322503109398393
:101BB0002883D7CF2091E5033091E603232B41F40E
:101BC00020911A0130911B013093E6032093E50325
:101BD00020911801309119012115310541F42DB7DB
:101BE0003EB740911C0150911D01241B350BE09123
:101BF000E503F091E603E217F307A0F42E1B3F0B79
:101C00002817390778F0AC014E5F5F4F241735076E
:101C100048F04E0F5F1F5093E6034093E503819316
:101C200091939FCFF0E0E0E09CCFCF93DF930097BC
:101C3000E9F0FC01329713821282A091E703B09180
:101C4000E803ED0130E020E01097A1F4208131811C
:101C5000820F931F2091E5033091E603281739077F
:101C600009F061C0F093E603E093E503DF91CF91C3
:101C70000895EA01CE17DF07E8F54A815B819E01EE
:101C800041155105B1F7E901FB83EA834991599167
:101C9000C40FD51FEC17FD0761F480819181029676
:101CA000840F951FE90199838883828193819B83A7
:101CB0008A83F0E0E0E012968D919C911397009753
:101CC000B9F52D913C911197CD010296820F931F8A
:101CD0002091E5033091E6032817390739F630974C
:101CE00051F51092E8031092E703B093E603A09336
:101CF000E503BCCFD383C28340815181840F951FFC
:101D0000C817D90761F44E5F5F4F88819981480FEA
:101D1000591F518340838A819B819383828321153C
:101D2000310509F0B0CFF093E803E093E7039ECFCD
:101D3000FD01DC01C0CF13821282D7CFB0E0A0E05A
:101D4000E4EAFEE00C94160D8C01009751F4CB01EF
:101D50000E94790D8C01C801CDB7DEB7E0E10C948B
:101D6000320DFC01E60FF71F9C0122503109E217EA
:101D7000F30708F49DC0D901CD91DC911197C617E6
:101D8000D70798F0C530D10530F3CE0104978617F8
:101D9000970708F3C61BD70B2297C193D1936D9376
:101DA0007C93CF010E94150ED6CF5B01AC1ABD0A01
:101DB0004C018C0E9D1EA091E703B091E803512CBD
:101DC000412CF12CE12C109731F58091E503909195
:101DD000E6038815990509F05CC04616570608F019
:101DE00058C08091180190911901009741F48DB766
:101DF0009EB740911C0150911D01841B950BE81763
:101E0000F90708F055C0F093E603E093E503F90104
:101E100071836083A0CF8D919C91119712966C90E5
:101E2000129713967C901397A815B90559F56C0174
:101E300042E0C40ED11CCA14DB0420F1AC014A19E3
:101E40005B09DA011296159780F0628273825183E2
:101E50004083D9016D937C93E114F10471F0D701B3
:101E60001396FC93EE93129776CF22968C0F9D1FBC
:101E7000F90191838083F301EFCFF093E803E093BE
:101E8000E70369CF4816590608F42C017D01D301F8
:101E90009ACFCB010E94790D7C01009749F0AE01E9
:101EA000B8010E945B0FC8010E94150E870153CF35
:101EB00010E000E050CFFB01DC0102C001900D9268
:101EC00041505040D8F70895FB01DC0101900D927C
:101ED0000020E1F70895F894FFCF07080C0D0203E6
:101EE00004053132334134353642373839432A30EC
:101EF00023440000E9038000000040001400540067
:101F000000000000E8023F0275023503A6028402C9
:101F10009802000000001204E5032905BB03DE035C
:101F2000CB03BC030000000089063F0229052805F9
:101F300000000000320236023A02426F62696E61AE
:101F400064656972612056312E300031202D2042A7
:101F50006F62696E61720032202D204D656D6F7267
:101F600069610033202D20526563616C6962726182
:101F700072007300526563616C696272616E646FB6
:101F80000041677561726465200031202D204E6F1D
:101F9000766F20496E6475746F720032202D204375
:101FA0006172726567617220496E6475746F720048
:101FB00044202D20566F6C746172005465737465F3
:101FC000204D656D6F7269610044207061726120FF
:081FD000766F6C746172000071
:107E0000112484B714BE81FFF0D085E080938100F7
:107E100082E08093C00088E18093C10086E0809377
:107E2000C20080E18093C4008EE0C9D0259A86E02C
:107E300020E33CEF91E0309385002093840096BBD3
:107E4000B09BFECF1D9AA8958150A9F7CC24DD24C4
:107E500088248394B5E0AB2EA1E19A2EF3E0BF2EE7
:107E6000A2D0813461F49FD0082FAFD0023811F036
:107E7000013811F484E001C083E08DD089C08234E0
:107E800011F484E103C0853419F485E0A6D080C0E4
:107E9000853579F488D0E82EFF2485D0082F10E0AE
:107EA000102F00270E291F29000F111F8ED06801E7
:107EB0006FC0863521F484E090D080E0DECF843638
:107EC00009F040C070D06FD0082F6DD080E0C81688
:107ED00080E7D80618F4F601B7BEE895C0E0D1E017
:107EE00062D089930C17E1F7F0E0CF16F0E7DF06D8
:107EF00018F0F601B7BEE89568D007B600FCFDCFD4
:107F0000A601A0E0B1E02C9130E011968C91119780
:107F100090E0982F8827822B932B1296FA010C0160
:107F200087BEE89511244E5F5F4FF1E0A038BF0790
:107F300051F7F601A7BEE89507B600FCFDCF97BE46
:107F4000E89526C08437B1F42ED02DD0F82E2BD052
:107F50003CD0F601EF2C8F010F5F1F4F84911BD097
:107F6000EA94F801C1F70894C11CD11CFA94CF0C13
:107F7000D11C0EC0853739F428D08EE10CD085E9AC
:107F80000AD08FE07ACF813511F488E018D01DD067
:107F900080E101D065CF982F8091C00085FFFCCF94
:107FA0009093C60008958091C00087FFFCCF809118
:107FB000C00084FD01C0A8958091C6000895E0E648
:107FC000F0E098E1908380830895EDDF803219F02E
:107FD00088E0F5DFFFCF84E1DECF1F93182FE3DFCA
:107FE0001150E9F7F2DF1F91089580E0E8DFEE27F6
:047FF000FF270994CA
:027FFE00040479
:00000001FF
