:100000000C9462000C948A000C948A000C948A0070
:100010000C948A000C948A000C948A000C948A0038
:100020000C948A000C948A000C948A000C948A0028
:100030000C948A000C948A000C948A000C948A0018
:100040000C9476050C948A000C94E6050C94C0057B
:100050000C948A000C948A000C948A000C948A00F8
:100060000C9418060C948A0000000000240027005D
:100070002A000000000023002600290000000000E4
:10008000250028002B0004040404040404040202D4
:100090000202020203030303030301020408102007
:1000A0004080010204081020010204081020000012
:1000B0000008000201000003040700000000000027
:1000C0000000370711241FBECFEFD8E0DEBFCDBF41
:1000D00023E0A8E9B1E001C01D92A338B207E1F71F
:1000E00011E0A0E0B1E0E0E1F7E102C005900D927F
:1000F000A839B107D9F710E0C2E6D0E004C02197D3
:10010000FE010E948E09C136D107C9F70E94EA0795
:100110000C94860B0C940000833081F028F481301D
:1001200099F08230A9F008958730A9F08830C9F09D
:100130008430B1F4809180008F7D03C08091800075
:100140008F7780938000089584B58F7784BD08955C
:1001500084B58F7DFBCF8091B0008F778093B00006
:1001600008958091B0008F7DF9CF1F93CF93DF93D7
:10017000282F30E0F901E255FF4F8491F901E6564E
:10018000FF4FD491F901EA57FF4FC491CC23A9F056
:10019000162F81110E948C00EC2FF0E0EE0FFF1F54
:1001A000E458FF4FA591B4918FB7F894EC911111D9
:1001B00008C0D095DE23DC938FBFDF91CF911F91D4
:1001C0000895DE2BF8CF3FB7F894809157029091B5
:1001D0005802A0915902B0915A0226B5A89B05C0B9
:1001E0002F3F19F00196A11DB11D3FBFBA2FA92FB6
:1001F000982F8827BC01CD01620F711D811D911DB3
:1002000042E0660F771F881F991F4A95D1F708951E
:100210008F929F92AF92BF92CF92DF92EF92FF9216
:100220004B015C010E94E3006B017C010E94E30032
:100230006C197D098E099F09683E734081059105FF
:10024000A8F321E0821A9108A108B10888EEC80E2F
:1002500083E0D81EE11CF11C81149104A104B104B7
:1002600029F7FF90EF90DF90CF90BF90AF909F90D5
:100270008F90089508950895AF92BF92CF92DF9224
:10028000EF92FF920F931F93CF93DF936C017B014B
:100290008B01040F151FEB015E01AE18BF08C017DC
:1002A000D10759F06991D601ED91FC910190F0814F
:1002B000E02DC6010995892B79F7C501DF91CF9112
:1002C0001F910F91FF90EF90DF90CF90BF90AF9074
:1002D0000895FC01538D448D252F30E0842F90E04C
:1002E000821B930B541710F0CF9608950197089531
:1002F000FC01918D828D981761F0A28DAE0FBF2FFA
:10030000B11D5D968C91928D9F5F9F73928F90E04F
:1003100008958FEF9FEF0895FC01918D828D9817BE
:1003200031F0828DE80FF11D858D90E008958FEFFB
:100330009FEF0895FC01918D228D892F90E0805CC4
:100340009F4F821B91098F73992708958BE592E047
:100350000E949A0121E0892B09F420E0822F089560
:1003600080E090E0892B29F00E94A60181110C9475
:1003700000000895FC01A48DA80FB92FB11DA35A48
:10038000BF4F2C91848D90E001968F739927848FB5
:10039000A689B7892C93A089B1898C9183708064D8
:1003A0008C93938D848D981306C00288F389E02D79
:1003B00080818F7D80830895EF92FF920F931F932A
:1003C000CF93DF93EC0181E0888F9B8D8C8D981308
:1003D0001AC0E889F989808185FF15C09FB7F89414
:1003E000EE89FF896083E889F98980818370806460
:1003F00080839FBF81E090E0DF91CF911F910F91AB
:10040000FF90EF900895F62E0B8D10E00F5F1F4FB9
:100410000F731127E02E8C8D8E110CC00FB607FCC8
:10042000FACFE889F989808185FFF5CFCE010E9456
:10043000BA01F1CFEB8DEC0FFD2FF11DE35AFF4F09
:10044000F0829FB7F8940B8FEA89FB8980818062E4
:10045000CFCFCF93DF93EC01888D8823B9F0AA89A1
:10046000BB89E889F9898C9185FD03C0808186FD6F
:100470000DC00FB607FCF7CF8C9185FFF2CF8081BE
:1004800085FFEDCFCE010E94BA01E9CFDF91CF9178
:10049000089520910002260F3327331F21323105A2
:1004A000ECF420912402FC0190E080E0243069F01B
:1004B00082E00895A09100022191AC0140525E4F6C
:1004C000A40FB52FB11D2C930196861798F3809138
:1004D0000002680F6093000280E0089581E00895B3
:1004E0001092240281E0809326021092250261E09E
:1004F00082E10E94B50061E083E10E94B500E9EB72
:10050000F0E080818E7F808380818D7F808388E48E
:100510008093B80085E48093BC000895CF93DF9367
:1005200091E09093DF018823B9F0C091B800D09199
:10053000BA008091BC008A7B8093BC0060E082E1BD
:100540000E94B50060E083E10E94B5000E94700245
:10055000D093BA00C093B800DF91CF910895089569
:10056000E091510280915002E81730F4F0E0E65437
:10057000FE4F808190E008958FEF9FEF0895909156
:100580005102809150022FEF3FEF981748F4E92F66
:10059000F0E0E654FE4F208130E09F5F90935102DF
:1005A000C90108958091500290915102891B990BC5
:1005B0000895CF92DF92EF92FF920F931F93CF9304
:1005C000DF937C01CB018A012091B901222389F0BC
:1005D000EB016B01C40ED51ECC15DD0569F06991E8
:1005E000D701ED91FC910190F081E02DC7010995B3
:1005F000F3CF642F0E944902C801DF91CF911F9170
:100600000F91FF90EF90DF90CF900895CF93DF93FD
:100610001F92CDB7DEB769832091B9012223F9F08B
:1006200020914E02203258F021E030E0FC0133836B
:10063000228390E080E00F90DF91CF910895809128
:100640004F02E82FF0E0E756FE4F998190838F5FCD
:1006500080934F0280934E0281E090E0ECCF61E006
:10066000CE0101960E944902F7CFCF92DF92EF921E
:10067000FF920F931F93CF93DF93FC01C48121E07E
:100680002093B901C093980110924F0210924E022C
:100690008385682B88EF92E00E940603D0914E027A
:1006A000D13208F092C00E94E3006B017C0180917E
:1006B0002402811165C082E08093240281E080934E
:1006C00026028FEF8093230210924802D0934702B4
:1006D000A9E9B1E0E7E2F2E080E0D81385C010922A
:1006E000490280914902CC0FC82BC09349028091E6
:1006F0002502813009F07CC0109225020E94E3009F
:100700006B017C01809149028093BB008091DB01E9
:100710009091DC01A091DD01B091DE01892B8A2B43
:100720008B2B99F00E94E3000091DB011091DC011A
:100730002091DD013091DE016C197D098E099F0940
:100740000617170728073907E0F18091BC0083FDE1
:10075000D9CF85EC8093BC000E94E3006B017C0143
:1007600080912402823009F445C0809123028F3F9A
:1007700061F180912302803241F18091230225C0F2
:100780008091DB019091DC01A091DD01B091DE014F
:10079000892B8A2B8B2B09F48ACF0E94E3000091CE
:1007A000DB011091DC012091DD013091DE016C193B
:1007B0007D098E099F09061717072807390708F0D2
:1007C00076CF8091DA010E948E0210924F02109231
:1007D0004E021092B901DF91CF911F910F91FF90BE
:1007E000EF90DF90CF9008959D9191938F5F75CF9B
:1007F00085EEB0CF8091DB019091DC01A091DD010D
:10080000B091DE01892B8A2B8B2B09F4A9CF0E9492
:10081000E3000091DB011091DC012091DD013091BA
:10082000DE016C197D098E099F0906171707280735
:10083000390708F095CFC5CF089590E080E008957E
:10084000CF93DF9370E0FB01E255FF4F8491FB01F2
:10085000E656FF4FD4916A577F4FFB01C491CC23DA
:10086000A1F081110E948C00EC2FF0E0EE0FFF1F31
:10087000EE58FF4FA591B491EC91ED2381E090E00B
:1008800009F480E0DF91CF91089580E090E0FACF05
:10089000862F642F0C94B500CF93DF9370E0FB019B
:1008A000E656FF4F24916A577F4FFB0184918823BE
:1008B000C9F090E0880F991FFC01E859FF4FA591FE
:1008C000B491FC01E458FF4FC591D49141110DC082
:1008D0009FB7F8948C91209582238C93888128234C
:1008E00028839FBFDF91CF910895423051F49FB785
:1008F000F8943C91822F809583238C93E8812E2B52
:10090000EFCF8FB7F894EC912E2B2C938FBFEACFBB
:10091000FC0101900020E9F73197AF01481B590B0A
:10092000BC0184E093E00C943C010F931F93CF93A0
:100930008C01C62F0E9435036C2F6460C8010E9491
:1009400035036C2F6B7FC8010E94350383EC90E068
:100950000197F1F7CF911F910F9108950F931F9376
:10096000CF93DF938C01D62FC42F607F642B0E941E
:10097000950480E1D89FB00111246C2BC801DF9150
:10098000CF911F910F910C949504CF93DF93CDB726
:10099000DEB728970FB6F894DEBF0FBECDBF98E044
:1009A000EEE1F1E0DE01119601900D929A95E1F7EA
:1009B00090910C03961710F46FEF690F262F30E01B
:1009C000220F331F41E050E04C0F5D1F240F351FF5
:1009D000F9016081680F606840E084E093E0289648
:1009E0000FB6F894DEBF0FBECDBFDF91CF910C9450
:1009F000AE0441E00E94AE0481E090E00895EF92E1
:100A0000FF920F931F93CF93DF93EC017B018A0139
:100A100088819981009729F02A813B812417350725
:100A200088F4B8016F5F7F4F0E94B90A009791F078
:100A3000998388831B830A832C813D81232B11F4A6
:100A4000FC0110821D830C83B701888199810E946B
:100A50007F0B0CC088819981009711F00E94300AA9
:100A6000198218821D821C821B821A82CE01DF919C
:100A7000CF911F910F91FF90EF90089585ED809396
:100A8000BC008091DB019091DC01A091DD01B0916F
:100A9000DE010796A11DB11D23E0B695A795979598
:100AA00087952A95D1F72091BC0024FD03C01092B0
:100AB000240208954091DB015091DC016091DD0139
:100AC0007091DE01452B462B472B69F30097A1055A
:100AD000B10541F02AE22A95F1F700C00197A1097A
:100AE000B109E1CF8091DA010C948E021F920F922E
:100AF0000FB60F9211242F933F938F939F93AF9331
:100B0000BF938091530290915402A0915502B091ED
:100B100056023091520223E0230F2D3758F50196EB
:100B2000A11DB11D20935202809353029093540251
:100B3000A0935502B09356028091570290915802AB
:100B4000A0915902B0915A020196A11DB11D809346
:100B5000570290935802A0935902B0935A02BF9142
:100B6000AF919F918F913F912F910F900FBE0F905A
:100B70001F90189526E8230F0296A11DB11DD2CF14
:100B80001F920F920FB60F9211242F933F934F9302
:100B90005F936F937F938F939F93AF93BF93EF93E5
:100BA000FF938BE592E00E94BA01FF91EF91BF9114
:100BB000AF919F918F917F916F915F914F913F91F5
:100BC0002F910F900FBE0F901F9018951F920F92AC
:100BD0000FB60F9211242F938F939F93EF93FF9350
:100BE000E0916B02F0916C028081E0917102F091D2
:100BF000720282FD1BC09081809174028F5F8F739F
:100C000020917502821741F0E0917402F0E0E55AFC
:100C1000FD4F958F80937402FF91EF919F918F917B
:100C20002F910F900FBE0F901F9018958081F4CFD9
:100C30001F920F920FB60F9211242F933F934F9351
:100C40005F936F937F938F939F93AF93BF93EF9334
:100C5000FF938091B900887F803609F44AC0F0F58F
:100C6000883209F4A7C018F5803109F49BC0B8F4A4
:100C7000882309F4F9C0883009F494C0FF91EF91FA
:100C8000BF91AF919F918F917F916F915F914F91A4
:100C90003F912F910F900FBE0F901F9018958831A4
:100CA00009F488C0803251F78093230214C0803445
:100CB00009F49DC040F48033B9F38833F9F680938A
:100CC000230285ECB0C0803509F485C0883509F46D
:100CD00096C0883499F60E943E05D0CF883909F431
:100CE0008CC038F5883729F050F4883611F08037F9
:100CF00029F683E0809324021092220257C088389C
:100D000009F47BC0803919F0803809F0B7CF8091A1
:100D10002202803208F071C0E091220281E08E0F41
:100D2000809322028091BB00F0E0EE5FFD4F808354
:100D30003DC0803B39F0E0F4803A09F479C0883A4C
:100D400009F09CCF84E0809324021092010210925B
:100D50000002E0914C02F0914D0209958091000251
:100D600081110FC081E0809300021092E00109C060
:100D7000803C09F4A6CF883C09F4A3CF883B09F056
:100D80007DCFE091010281E08E0F80930102F0E0BF
:100D9000E052FE4F80818093BB00909101028091D0
:100DA000000229C0809149028093BB0085EC8093AA
:100DB000BC0064CF9091480280914702981758F583
:100DC000E091480281E08E0F80934802F0E0E95DF7
:100DD000FD4F8081E9CFE091480281E08E0F809342
:100DE00048028091BB00F0E0E95DFD4F8083909167
:100DF0004802809147029817C8F285E8D8CFE09161
:100E0000480281E08E0F809348028091BB00F0E0A1
:100E1000E95DFD4F80838091260281115CCF81E0E6
:100E20008093250284EA8093BC001092240226CF8E
:100E300085EC8093BC0010922402809122028032C3
:100E400030F4E0912202F0E0EE5FFD4F10826091FD
:100E5000220270E0E0914A02F0914B0282E092E0BF
:100E60000995109222020ACF1092230234CF1092D9
:100E70005E0210925D0288EE93E0A0E0B0E0809305
:100E80005F0290936002A0936102B09362022AE233
:100E900031E030935C0220935B0225EC30E030932C
:100EA00068022093670224EC30E030936A022093BA
:100EB000690220EC30E030936C0220936B0221EC4D
:100EC00030E030936E0220936D0222EC30E03093DC
:100ED000700220936F0226EC30E030937202209370
:100EE00071021092740210927502109276021092A2
:100EF00077021092FB021092FA028093FC02909308
:100F0000FD02A093FE02B093FF028CE391E0909368
:100F1000F9028093F80210921203109216031092B5
:100F20001503109217038AE591E0909311038093C3
:100F30001003ECE2F3E010821482138215823696DD
:100F400083E0E836F807B9F784E091E09093730303
:100F50008093720380E091E0909375038093740313
:100F600084E0809376038093770328E031E0309328
:100F70007103209370032AE030E0309379032093CB
:100F8000780324EF31E030937B0320937A031092AF
:100F90007E0310927D0310926C0310926D031092E9
:100FA0006E0310926F0310927C031092070310924D
:100FB00006032EE431E0309305032093040398E305
:100FC0009093080394E190930D0380930E03109285
:100FD0000F030895CF93DF93CDB7DEB72C970FB6ED
:100FE000F894DEBF0FBECDBF789484B5826084BD17
:100FF00084B5816084BD85B5826085BD85B581601D
:1010000085BD80916E00816080936E00109281009A
:101010008091810082608093810080918100816055
:101020008093810080918000816080938000809116
:10103000B10084608093B1008091B00081608093A2
:10104000B00080917A00846080937A0080917A0069
:10105000826080937A0080917A00816080937A0028
:1010600080917A00806880937A001092C100E091AC
:101070006B02F0916C0282E08083E0916702F09154
:1010800068021082E0916902F0916A028FEC80831D
:1010900010927302E0916F02F091700286E08083FB
:1010A000E0916D02F0916E02808180618083E09119
:1010B0006D02F0916E02808188608083E0916D0204
:1010C000F0916E02808180688083E0916D02F091E2
:1010D0006E0280818F7D80831092510210925002A7
:1010E00010924F0210924E020E9470028AE391E029
:1010F00090934D0280934C028BE391E090934B02CE
:1011000080934A021092090380910E03823018F0F6
:1011100098E09093090380930C0362E370E080E011
:1011200090E00E94080160910F0384E093E00E9428
:10113000350368EE73E080E090E00E94080160E310
:1011400084E093E00E9495040BE416E4C801019743
:10115000F1F760E384E093E00E949504C8010197F1
:10116000F1F760E384E093E00E94950483E592E068
:101170000197F1F760E284E093E00E9495046091AA
:101180000903606240E084E093E00E94AE0484E0E2
:1011900080930A0340E06CE084E093E00E94AE0498
:1011A00040E061E084E093E00E94AE040BE31FE1C5
:1011B000C8010197F1F782E080930B0340E066E0FD
:1011C00084E093E00E94AE0440E062E084E093E0BB
:1011D0000E94AE04C8010197F1F788E080930F03E5
:1011E00060E084E093E00E94350318861F821A862F
:1011F00019861C861B8640E150E060E671E0CE0156
:1012000007960E94FF041A8219821C821B821E828A
:101210001D826F8178856115710531F04B855C8584
:10122000CE0101960E94FF042D813E8184E190E071
:10123000821B930B9695879560E00E94C504898177
:101240009A81009711F00E94300A4B855C856F816E
:10125000788584E093E00E943C0161E080E00E9498
:10126000C50481E791E00E94880462E080E00E946A
:10127000C5048DE791E00E94880463E080E00E944D
:10128000C50489E891E00E9488048F8198850097C1
:1012900011F00E94300A00E010E001151105E9F399
:1012A0000E94A6018823C9F30E940000F6CF2F9266
:1012B0003F924F925F926F927F928F929F92AF92E6
:1012C000BF92CF92DF92EF92FF920F931F93CF9333
:1012D000DF93CDB7DEB7CA1BDB0B0FB6F894DEBFCA
:1012E0000FBECDBF09942A88398848885F846E84F0
:1012F0007D848C849B84AA84B984C884DF80EE803A
:10130000FD800C811B81AA81B981CE0FD11D0FB642
:10131000F894DEBF0FBECDBFED010895EE0FFF1FA5
:101320000590F491E02D09940F931F93CF93DF93D1
:101330008230910510F482E090E0E0918103F09119
:10134000820330E020E0B0E0A0E0309799F421156E
:10135000310509F44AC0281B390B24303105D8F572
:101360008A819B816115710589F1FB0193838283D9
:10137000FE0111C040815181028113814817590734
:10138000E0F04817590799F4109761F012960C9302
:10139000129713961C933296CF01DF91CF911F9134
:1013A0000F9108950093810310938203F4CF2115C8
:1013B000310551F04217530738F0A901DB019A01BA
:1013C000BD01DF01F801C1CFEF01F9CF9093820396
:1013D00080938103CDCFFE01E20FF31F81939193A0
:1013E0002250310939832883D7CF20917F03309150
:1013F0008003232B41F420911A0130911B0130937B
:10140000800320937F032091180130911901211549
:10141000310541F42DB73EB740911C0150911D019B
:10142000241B350BE0917F03F0918003E217F30753
:10143000A0F42E1B3F0B2817390778F0AC014E5F44
:101440005F4F2417350748F04E0F5F1F50938003FE
:1014500040937F03819391939FCFF0E0E0E09CCF96
:10146000CF93DF930097E9F0FC0132971382128249
:10147000A0918103B0918203ED0130E020E010974C
:10148000A1F420813181820F931F20917F0330913D
:1014900080032817390709F061C0F0938003E093B7
:1014A0007F03DF91CF910895EA01CE17DF07E8F5BA
:1014B0004A815B819E0141155105B1F7E901FB832A
:1014C000EA8349915991C40FD51FEC17FD0761F4C8
:1014D000808191810296840F951FE9019983888309
:1014E000828193819B838A83F0E0E0E012968D9164
:1014F0009C9113970097B9F52D913C911197CD01CF
:101500000296820F931F20917F033091800328174A
:10151000390739F6309751F5109282031092810302
:10152000B0938003A0937F03BCCFD383C283408159
:101530005181840F951FC817D90761F44E5F5F4F23
:1015400088819981480F591F518340838A819B81EB
:10155000938382832115310509F0B0CFF093820384
:10156000E09381039ECFFD01DC01C0CF1382128284
:10157000D7CFB0E0A0E0EFEBFAE00C9459098C0172
:10158000009751F4CB010E9494098C01C801CDB79A
:10159000DEB7E0E10C947509FC01E60FF71F9C0132
:1015A00022503109E217F30708F49DC0D901CD910B
:1015B000DC911197C617D70798F0C530D10530F3E5
:1015C000CE0104978617970708F3C61BD70B2297FF
:1015D000C193D1936D937C93CF010E94300AD6CFF3
:1015E0005B01AC1ABD0A4C018C0E9D1EA0918103BB
:1015F000B0918203512C412CF12CE12C109731F544
:1016000080917F03909180038815990509F05CC053
:101610004616570608F058C080911801909119019C
:10162000009741F48DB79EB740911C0150911D0168
:10163000841B950BE817F90708F055C0F093800359
:10164000E0937F03F90171836083A0CF8D919C911A
:10165000119712966C90129713967C901397A81579
:10166000B90559F56C0142E0C40ED11CCA14DB0463
:1016700020F1AC014A195B09DA011296159780F046
:101680006282738251834083D9016D937C93E1140C
:10169000F10471F0D7011396FC93EE93129776CF75
:1016A00022968C0F9D1FF90191838083F301EFCF68
:1016B000F0938203E093810369CF4816590608F43A
:1016C0002C017D01D3019ACFCB010E9494097C01AA
:1016D000009749F0AE01B8010E94760BC8010E9444
:1016E000300A870153CF10E000E050CFFB01DC014E
:1016F00002C001900D9241505040D8F70895FB016F
:10170000DC0101900D920020E1F70895F894FFCFDD
:1017100007080C0D020304053132334134353642DB
:10172000373839432A302344000083038000000007
:1017300040001400540000000000DC013C0169017D
:1017400029029A0178018C01000000000603D902E9
:101750001D04AF02D202BF02B00200000000F90473
:101760003C011D041C04000000004C04480420043B
:10177000426F62696E6164656972612056312E3014
:101780000031202D20426F62696E61720032202D7F
:10179000204D656D6F7269610033202D20526563A5
:0817A000616C69627261720064
:00000001FF
