:100000000C9481000C94A9000C94A9000C94A900F4
:100010000C94A9000C94A9000C94A9000C94A900BC
:100020000C94A9000C94A9000C94A9000C94A900AC
:100030000C94A9000C94A9000C94A9000C94A9009C
:100040000C94150D0C94A9000C94A9000C94A90013
:100050000C94A9000C94A9000C94A9000C94A9007C
:100060000C945F0D0C94A9004E414E494E495459D1
:10007000494E46CDCCCC3D0AD7233C17B7D1387773
:10008000CC2B329595E6241FB14F0A000020410089
:1000900000C84200401C4620BCBE4CCA1B0E5AAED3
:1000A000C59D7400000000240027002A0000000005
:1000B00000250028002B0000000000230026002956
:1000C0000004040404040404040202020202020301
:1000D000030303030301020408102040800102040B
:1000E000081020010204081020000000080002018E
:1000F00000000304070000000000000000007E0E66
:100100005C1D11241FBECFEFD8E0DEBFCDBF26E0BF
:10011000A6E6B4E001C01D92AD30B207E1F714E0ED
:10012000A0E0B1E0E2E6F8E402C005900D92A63648
:10013000B107D9F710E0C0E8D0E004C02197FE0174
:100140000E941822CF37D107C9F70E94860F0C945E
:1001500024240C94000096E0899FD0011124AE580D
:10016000BA4F90967C936E935F9791E091969C9393
:100170009197E091DF05F091E0059091DE059923DC
:1001800039F0309751F0811108C080918E050994A3
:10019000309719F05C968C91FACF089508958330CA
:1001A00081F028F4813099F08230A9F008958730E9
:1001B000A9F08830C9F08430B1F4809180008F7D3F
:1001C00003C0809180008F7780938000089584B56C
:1001D0008F7784BD089584B58F7DFBCF8091B0006B
:1001E0008F778093B00008958091B0008F7DF9CF14
:1001F000CF93DF93282F30E0F901E751FF4F84912F
:10020000F901EB52FF4FD491F901EF53FF4FC49125
:10021000CC23A1F081110E94CF00EC2FF0E0EE0F73
:10022000FF1FE954FF4FA591B491EC91ED2381E0BC
:1002300090E009F480E0DF91CF91089580E090E0B4
:10024000FACF1F93CF93DF93282F30E0F901E751C6
:10025000FF4F8491F901EB52FF4FD491F901EF5315
:10026000FF4FC491CC23A9F0162F81110E94CF001B
:10027000EC2FF0E0EE0FFF1FE355FF4FA591B49177
:100280008FB7F894EC91111108C0D095DE23DC9360
:100290008FBFDF91CF911F910895DE2BF8CFCF93C1
:1002A000DF93EC018091F5059091F605029749F4F2
:1002B000C130D10509F43BC06CF560E0209709F42A
:1002C00037C08091F5059091F605049749F4C13047
:1002D000D10509F45CC00CF037C0209709F442C086
:1002E0008091F5059091F605059709F0E5C0CA30B3
:1002F000D10508F0E1C0FE01E058FE4F0C94182231
:10030000DF01EB01FC0112022D022F023602420234
:1003100053025A02C230D105A9F060E0C330D105C2
:1003200081F68091F9050E94210160E006C061E03C
:100330008091F9050E94210161E08091FB050E94F6
:100340002101BFCF61E0EDCFC230D10539F1C3301B
:10035000D10509F0C5CF61E08091F9050E94210126
:1003600060E022C061E08091F9050E94210160E017
:100370008091FB050E94210161E08091FD050E94B2
:10038000210160E08091FF050E942101A9CF60E07A
:100390008091F9050E94210161E0EACF60E080913F
:1003A000F9050E94210161E08091FB050E94210175
:1003B00060E08091FD050E94210161E0E3CF60E0F3
:1003C0008091F9050E94210161E08091FB050E9466
:1003D000210161E00BC060E08091F9050E942101DC
:1003E00061E08091FB050E94210160E08091FD05A4
:1003F0000E94210160E010C060E08091F9050E9438
:10040000210161E08091FB050E94210160E0809163
:10041000FD050E94210161E08091FF050E942101FC
:1004200061E015C060E08091F9050E94210161E062
:100430008091FB050E94210160E08091FD050E94F2
:10044000210161E08091FF050E94210160E080911F
:100450000106DF91CF910C94210161E0E4CF61E0CE
:100460008091F9050E94210160E0E2CF61E0809176
:10047000F9050E94210160E08091FB050E942101A5
:1004800061E0DBCF61E08091F9050E94210160E02D
:100490008091FB050E94210161E08091FD050E9491
:1004A000210160E0CFCF61E08091F9050E94210138
:1004B00060E08BCF60E0F8CFDF91CF910895CF93CC
:1004C000DF9390E0FC01EB52FF4F24918F539F4F3D
:1004D000FC0184918823C9F090E0880F991FFC01EA
:1004E000ED55FF4FA591B491FC01E355FF4FC59128
:1004F000D49161110DC09FB7F8948C9120958223FF
:100500008C938881282328839FBFDF91CF91089502
:10051000623051F49FB7F8943C91822F80958323E9
:100520008C93E8812E2BEFCF8FB7F894EC912E2B84
:100530002C938FBFEACF3FB7F8948091F904909144
:10054000FA04A091FB04B091FC0426B5A89B05C059
:100550002F3F19F00196A11DB11D3FBFBA2FA92F42
:10056000982F8827BC01CD01620F711D811D911D3F
:1005700042E0660F771F881F991F4A95D1F70895AB
:100580004F925F926F927F928F929F92AF92BF92A3
:10059000EF92FF920F931F93CF93DF93EC0197FF9E
:1005A00004C0CC27DD27C81BD90B181619060CF080
:1005B00061C081E090E09093EE058093ED0504E04A
:1005C00010E08AE0E82EF12C209709F46FC00E9419
:1005D0009B028090030690900406A0900506B090C0
:1005E00006062B013C01481859086A087B088090D0
:1005F000EF059090F005A090F105B090F205481439
:1006000059046A047B0400F36093030670930406A4
:1006100080930506909306068091F7059091F80562
:100620002091ED053091EE052130310559F5019607
:100630009093F8058093F7052091F3053091F40528
:100640008217930721F41092F8051092F70521976D
:100650008091F7059091F8052091F5053091F60508
:10066000B7012530310509F0B8010E94C3210E946D
:100670004F01AACF892B09F4A2CF1092EE05109258
:10068000ED059DCF892B41F48091F3059091F40500
:100690009093F8058093F7058091F7059091F80500
:1006A00001979093F8058093F705D1CFDF91CF9113
:1006B0001F910F91FF90EF90BF90AF909F908F9000
:1006C0007F906F905F904F9008958F929F92AF921E
:1006D000BF92CF92DF92EF92FF924B015C010E949A
:1006E0009B026B017C010E949B026C197D098E09A3
:1006F0009F09683E734081059105A8F321E0821AA5
:100700009108A108B10888EEC80E83E0D81EE11C4C
:10071000F11C81149104A104B10429F7FF90EF901A
:10072000DF90CF90BF90AF909F908F9008952FB79C
:10073000F8946091F5047091F6048091F70490911B
:10074000F8042FBF08950F931F93CF93DF93C82F03
:10075000D62F86E0C89FF0011124EE58FA4F11A25F
:10076000878D90A181309105F1F058F0823091058C
:10077000F1F1039709F440C0DF91CF911F910F91E0
:1007800008956623C9F361E070E08C2F0E94AB00EE
:100790000E9497036093CA057093CB058093CC05A4
:1007A0009093CD05E9CF0E9497030091CA0510915F
:1007B000CB052091CC053091CD05AB01BC01401B90
:1007C000510B620B730B8091DC059091DD05B0E05D
:1007D000A0E084179507A607B70748F462E070E029
:1007E0008C2FDF91CF911F910F910C94AB0063E0A0
:1007F00070E0D111C1CFF4CF70E060E0F1CF089587
:100800000895AF92BF92CF92DF92EF92FF920F9333
:100810001F93CF93DF936C017B018B01040F151F96
:10082000EB015E01AE18BF08C017D10759F06991FE
:10083000D601ED91FC910190F081E02DC601099562
:10084000892B79F7C501DF91CF911F910F91FF900F
:10085000EF90DF90CF90BF90AF9008950F931F93CC
:10086000CF938C01C0E0442319F0DC015096CC9169
:10087000F8018781882311F08389C82B60FF04C0A9
:10088000D80154968C91C82B61FF03C0F80185896B
:10089000C82B62FF04C0D80156968C91C82B63FF09
:1008A00003C0F8018789C82BD80114968D919C91BB
:1008B000159752966C916C2BDC01ED91FC91019097
:1008C000F081E02D0995F80184819581DC01ED919D
:1008D000FC910190F081E02D6C2FCF911F910F9131
:1008E000099408952091A704260F3327331F21323E
:1008F0003105ECF420914305FC0190E080E02430C8
:1009000069F082E00895A091A7042191AC014957B4
:100910005B4FA40FB52FB11D2C930196861798F34A
:100920008091A704680F6093A70480E0089581E098
:1009300008951092430581E08093220510921D05D1
:1009400061E082E10E94210161E083E10E942101D6
:10095000E9EBF0E080818E7F808380818D7F8083D2
:1009600088E48093B80085E48093BC000895CF9319
:10097000DF9391E0909386048823B9F0C091B8008A
:10098000D091BA008091BC008A7B8093BC0060E06B
:1009900082E10E94210160E083E10E9421010E9426
:1009A0009904D093BA00C093B800DF91CF91089515
:1009B000CF92DF92EF92FF920F931F93CF93DF932B
:1009C000D82FC62F613208F098C00E949B026B019D
:1009D0007C018091430581116BC081E080934305C8
:1009E000809322059FEF90932105109220059C0F84
:1009F00090931F0580931E0580911E05DD0FD82B57
:100A0000D0931E0580911D05813009F078C01092A9
:100A10001D050E949B026B017C0180911E05809345
:100A2000BB008091450590914605A0914705B09186
:100A30004805892B8A2B8B2BA1F00E949B020091E9
:100A400045051091460520914705309148056C19E0
:100A50007D098E099F09061717072807390708F42B
:100A600048C08091BC0083FDD8CF85EC8093BC004A
:100A70000E949B026B017C0180914305813009F447
:100A800040C0809120058C1710F4C0912005EDEF37
:100A9000F4E0A3E2B5E080E08C1355C08C2FDF9129
:100AA000CF911F910F91FF90EF90DF90CF9008951D
:100AB0008091450590914605A0914705B091480564
:100AC000892B8A2B8B2B09F484CF0E949B020091E7
:100AD00045051091460520914705309148056C1950
:100AE0007D098E099F09061717072807390708F09F
:100AF00070CF809144050E94B704C0E0CFCF85EE4F
:100B0000B5CF8091450590914605A0914705B091DC
:100B10004805892B8A2B8B2B09F4AECF0E949B02B0
:100B200000914505109146052091470530914805F3
:100B30006C197D098E099F090617170728073907C1
:100B400008F09ACFD6CF91919D938F5FA5CF08954E
:100B5000E091CF048091CE04E81730F4F0E0ED5D31
:100B6000FA4F808190E008958FEF9FEF0895909164
:100B7000CF048091CE042FEF3FEF981748F4E92F70
:100B8000F0E0ED5DFA4F208130E09F5F9093CF045D
:100B9000C90108958091CE049091CF04891B990BCF
:100BA0000895CF92DF92EF92FF920F931F93CF930E
:100BB000DF937C01CB018A0120914C05222389F02F
:100BC000EB016B01C40ED51ECC15DD0569F06991F2
:100BD000D701ED91FC910190F081E02DC7010995BD
:100BE000F3CF642F0E947204C801DF91CF911F914F
:100BF0000F91FF90EF90DF90CF900895CF93DF9308
:100C00001F92CDB7DEB7698320914C052223F9F0FE
:100C100020914905203258F021E030E0FC01338377
:100C2000228390E080E00F90DF91CF910895809132
:100C30004A05E82FF0E0EA59FB4F998190838F5FD6
:100C400080934A058093490581E090E0ECCF61E014
:100C5000CE0101960E947204F7CFCF92DF92EF92FD
:100C6000FF920F931F93CF93DF93D091490581E0BB
:100C7000D13208F09CC0C0914B050E949B026B01D1
:100C80007C018091430581116CC082E08093430513
:100C900081E0809322058FEF80932105109220053B
:100CA000D0931F05A6E6B4E0EDEFF4E080E0D813A2
:100CB0008DC010921E0580911E05CC0FC82BC093CD
:100CC0001E0580911D05813009F084C010921D051C
:100CD0000E949B026B017C0180911E058093BB00EA
:100CE0008091450590914605A0914705B091480532
:100CF000892B8A2B8B2BA1F00E949B02009145052A
:100D00001091460520914705309148056C197D09E1
:100D10008E099F09061717072807390708F442C0EC
:100D20008091BC0083FDD8CF85EC8093BC000E94ED
:100D30009B026B017C0180914305823009F44CC019
:100D4000809121058F3F09F469C08091210580328F
:100D500009F466C080912105803309F463C084E002
:100D600026C08091450590914605A0914705B09118
:100D70004805892B8A2B8B2B09F483CF0E949B0279
:100D80000091450510914605209147053091480591
:100D90006C197D098E099F0906171707280739075F
:100DA00008F06FCF809144050E94B70485E010924F
:100DB0004A051092490510924C05DF91CF911F9181
:100DC0000F91FF90EF90DF90CF9008959D919193B8
:100DD0008F5F6DCF85EEA9CF809145059091460537
:100DE000A0914705B0914805892B8A2B8B2B09F4DC
:100DF000A2CF0E949B0200914505109146052091CB
:100E00004705309148056C197D098E099F09061721
:100E100017072807390708F08ECFC4CF80E0C7CF67
:100E200082E0C5CF83E0C3CFCF93DF93CEE4D5E09C
:100E30009E8121E020934C0590934B0510924A052A
:100E40001092490540E0682FCE010E942E048C814B
:100E50009D81DF91CF910C942D060F931F93CF931B
:100E6000DF93EC01162F042F8E8191E090934C05B7
:100E700080934B0510924A051092490562956F7058
:100E8000CE010E942E04612F6F70402FCE010E9470
:100E90002E048C819D81DF91CF911F910F910C9435
:100EA0002D0640E061E08EE495E00E942D078BEF77
:100EB00098E10197F1F7089590915605891780F40C
:100EC00090915705691760F4E62FF0E0E25BFA4F66
:100ED0006485680F606840E08EE495E00C942D070F
:100EE0000895EEE4F5E06385862F8160838769606D
:100EF00040E0CF010C942D0741E00E942D0781E0D6
:100F000090E0089541E0682F8EE495E00E942D075F
:100F100081E090E00895EEE4F5E063856E7F6387FD
:100F2000686040E0CF010C942D0790E080E00895C8
:100F3000EF92FF920F931F93CF93DF93EC017B010E
:100F40008C010D581F4FD8018D919C91FE01E159E4
:100F5000FF4F208131E030934C0520934B051092D8
:100F60004A0510924905DC01ED91FC910190F08158
:100F7000E02D0995FE01E059FF4F8081823058F045
:100F8000F80180819181DC01ED91FC910190F0816B
:100F9000E02D6F2D0995F801808191810E942D0629
:100FA000CF58DF4FE882F982DF91CF911F910F91E7
:100FB000FF90EF90089521E030E002C0220F331F30
:100FC0006A95E2F7FC01EF58FF4F6081718144237D
:100FD00041F0262B372B31832083608171810C9463
:100FE00098072095309526233723F5CF862F0C942C
:100FF000F800862F642F0C942101862F642F0C9407
:101000005F0261E085E00E94210164E170E080E020
:1010100090E00E94650360E085E00C942101CF928E
:10102000DF92EF92FF920F931F93CF93DF93EC0128
:1010300081E090E07C0102C0EE0CFF1C6A95E2F7B3
:101040006E0180E7C80ED11CD6016C91613208F0A8
:1010500060E2FE01E159FF4F80810E94D8041092A6
:10106000CF048093CE04CD58DF4F88819981DC0175
:10107000ED91FC910284F385E02D09958C01F60138
:101080008081823060F088819981DC01ED91FC9152
:101090000284F385E02D099520E0022B182B0E2108
:1010A0001F2181E090E00E151F0511F090E080E017
:1010B000DF91CF911F910F91FF90EF90DF90CF9034
:1010C00008956F927F928F929F92AF92BF92CF922C
:1010D000DF92EF92FF920F931F93CF93DF9381E004
:1010E0008093DE050E9497030091CE051091CF05F5
:1010F0002091D0053091D105AB01BC01401B510BB3
:10110000620B730B8091DA059091DB05B0E0A0E0F3
:1011100084179507A607B70708F0FAC0712C812C31
:10112000912C540183948091D905781608F050C011
:10113000E72CF12CE091D605F091D705EE0DFF1DBF
:1011400040E0608182E795E00E94DB079501840121
:10115000072C04C0000F111F221F331F0A94D2F75F
:10116000680100951095612C8091D805681608F5E6
:10117000C62DD0E0E091D405F091D505EC0FFD1F10
:10118000608182E795E00E940F082496CC0FDD1F56
:10119000CE58DA4F892B41F4888199818C299D2979
:1011A000998388836394E0CF8881998180239123F8
:1011B000F7CF8091D6059091D705E80EF91E41E052
:1011C000F701608182E795E00E94DB077394ABCF63
:1011D00022E7C22E25E0D22EE6018FEF9FEF2F8D62
:1011E00038A1232B21F41C8E9E8F8D8F19A2269659
:1011F000F5E0CE3ADF0799F710E096E0B92E80913E
:10120000D805181708F052C000E0E12EF12CEE0CC2
:10121000FF1CC70186589A4F7C012091D9050217FF
:1012200008F042C0F70160817181002E02C07695FE
:1012300067950A94E2F7129F90011124200F311D47
:10124000E2E7F5E080E0458D568D2417350709F477
:1012500063C08F5F36968A30B1F760FF23C0E2E744
:10126000F5E090E080E0448D411117C0E091D20597
:10127000F091D305E20FF31F4081B89EF001B99EB3
:10128000F00D1124EE58FA4F448F368F258F10A29F
:10129000178E61E00E94A30305C0019636968A303E
:1012A000910509F70F5FB9CF1F5FA9CF10E0F601D5
:1012B00081A18111182FF6E0CF0ED11CCC15DD05D0
:1012C000B1F70E9497036093CE057093CF0580938A
:1012D000D0059093D1051123D9F0809193058823EF
:1012E000B9F08091910590919205019789F48091D0
:1012F0008E05DF91CF911F910F91FF90EF90DF90BE
:10130000CF90BF90AF909F908F907F906F900895F7
:101310001092DE0580E0EDCF6170BCCF0E946108C5
:101320008823E1F30895FC0101900020E9F731974B
:10133000AF01481B590BBC018EE495E00C940104ED
:101340008F929F92AF92BF920F931F93CF93DF9391
:10135000CDB7DEB7A1970FB6F894DEBF0FBECDBFF5
:1013600019A2423008F44AE08E010F5D1F4F842E0F
:10137000912CB12CA12CA50194010E94D721E62F1C
:10138000B901CA01EA30F4F4E05DD801EE938D01B1
:10139000232B242B252B79F790E080E0109719F070
:1013A000CD010E949309A1960FB6F894DEBF0FBE3F
:1013B000CDBFDF91CF911F910F91BF90AF909F90C4
:1013C0008F900895E95CE1CFCF92DF92EF92FF9288
:1013D000CF93DF936C01990FEE08FF08F7FE17C05B
:1013E0008DE20E948207EC0166277727CB016C19FA
:1013F0007D098E099F094AE00E94A0098C0F9D1F5C
:10140000DF91CF91FF90EF90DF90CF9008954AE069
:10141000C701B601DF91CF91FF90EF90DF90CF90A1
:101420000C94A0090C9493096091F0047091F1045C
:10143000072E000C880B990B0E941D1F2091EC04B5
:101440003091ED044091EE045091EF040E947C1F16
:101450002091E8043091E9044091EA045091EB04B2
:101460000E9411210E9483217093D9046093D804B3
:1014700062E08AE00E945C078091F2049091F3049C
:101480000A9724F489E491E00E94120A8091F20400
:101490009091F3048436910524F489E491E00E944C
:1014A000120A8091F2049091F304883E934024F450
:1014B00089E491E00E94120A8091F2049091F30471
:1014C0000E94E40962E08EE00E945C078BE491E0F8
:1014D0000E94120A8091F0049091F1040A9724F47A
:1014E00089E491E00E94120A8091F0049091F10445
:1014F0008436910524F489E491E00E94120A8091D7
:10150000F0049091F104883E934024F489E491E042
:101510000E94120A8091F0049091F1040E94E40963
:1015200063E08AE00E945C078091010190910201D2
:101530000A9724F489E491E00E94120A8091010143
:10154000909102018436910524F489E491E00E948F
:10155000120A8091010190910201883E934024F487
:1015600089E491E00E94120A8091010190910201A8
:101570000E94E40963E08EE00E945C078BE491E046
:101580000E94120A8091D8049091D9040A9724F4F9
:1015900089E491E00E94120A8091D8049091D904C4
:1015A0008436910524F489E491E00E94120A809126
:1015B000D8049091D904883E934024F489E491E0C2
:1015C0000E94120A8091D8049091D9040C94E409E5
:1015D0004F925F926F927F928F929F92AF92BF9243
:1015E000CF92DF92EF92FF920F931F93CF936B01F5
:1015F0007C01742EAC019B010E94BE21882399F0CE
:101600008DE491E0CF911F910F91FF90EF90DF90CB
:10161000CF90BF90AF909F908F907F906F905F9092
:101620004F900C94930946015701E894B7F82FEFB7
:101630003FEF4FE75FE7C501B4010E94BE21811172
:101640000DC02FEF3FEF4FE75FE7C501B4010E94E8
:10165000161F18161CF481E591E0D4CF2FEF3FEF51
:101660004FE75FE4C701B6010E94B92118161CF4C8
:1016700085E591E0C7CF2FEF3FEF4FE75FECC70164
:10168000B6010E94161F87FDF3CF20E030E0A901CC
:10169000C701B6010E94161F10E000E087FF08C0D6
:1016A0008DE20E9482078C01F7FAF094F7F8F0942B
:1016B000C0E060E070E080E09FE37C1641F020E055
:1016C00030E040E251E40E941121CF5FF6CFA70144
:1016D00096010E94A5202B013C010E948A214B010A
:1016E0005C014AE00E94A0097C01E00EF11ECC23BF
:1016F000B1F1C501B4010E941B1F9B01AC01C301E4
:10170000B2010E94A4204B015C018EE20E9482077C
:10171000E80EF91EC15018F120E030E040E251E43B
:10172000C501B4010E947C1F2B013C010E948A214B
:101730004B01B12CA12C4AE0C501B4010E94A009C3
:10174000E80EF91EC501B4010E941B1F9B01AC01EC
:10175000C301B2010E94A4204B015C01DBCFC70191
:10176000CF911F910F91FF90EF90DF90CF90BF909E
:10177000AF909F908F907F906F905F904F90089563
:10178000CF93DF93EC018091E7059091E8050097F6
:1017900059F02091E9053091EA052C173D0720F01A
:1017A00081E0DF91CF910895BE016F5F7F4F0E946E
:1017B0005723009789F09093E8058093E705D0932D
:1017C000EA05C093E9052091EB053091EC05232B48
:1017D00039F7FC011082E4CF80E0E3CF0F931F9331
:1017E000CF93DF93FC0101900020E9F73197E81BCC
:1017F000F90BE9F08C01C091EB05D091EC05CE0F0F
:10180000DF1FCE010E94C00B882391F02091E705D5
:101810003091E8058091EB059091EC05B801820FBD
:10182000931F0E941D24D093EC05C093EB0581E02B
:10183000DF91CF911F910F91089590E080E00E9479
:10184000C00B2091E7053091E805811113C02115E7
:10185000310519F0C9010E94CE221092E8051092BC
:10186000E7051092EC051092EB051092EA05109234
:10187000E90508951092EC051092EB0566E872E018
:10188000C9010C941D248091E7059091E80500970B
:1018900011F00C94651D60E070E0CB01089585EDBA
:1018A0008093BC008091450590914605A091470525
:1018B000B09148050796A11DB11D23E0B695A795E7
:1018C000979587952A95D1F72091BC0024FD03C0F8
:1018D0001092430508954091450550914605609149
:1018E000470570914805452B462B472B69F3009718
:1018F000A105B10541F02AE22A95F1F700C0019750
:10190000A109B109E1CF809144050C94B704FF927D
:101910000F931F93CF93DF93EC018B01FB01F080BA
:101920000E943D20F81621F06F2DCE010E94452027
:10193000F801F1802196CE010E943D20F81621F099
:101940006F2DCE010E944520C801DF91CF911F91DC
:101950000F91FF9008959F92AF92BF92CF92DF9226
:10196000EF92FF920F931F93CF93DF935C017B0164
:101970008B01D0E0C0E0F80191908F016501CC0EA1
:10198000DD1EC6010E943D20981621F0692DC6017A
:101990000E9445202196C430D10569F7C701DF9127
:1019A000CF911F910F91FF90EF90DF90CF90BF905C
:1019B000AF909F900895CF92DF92EF92FF920F9396
:1019C0001F93CF93DF93EB017B0124E0E20EF11C28
:1019D0008B016C01C61AD70AC601800F911F0E94A5
:1019E0003D20F80181938F01EE15FF05A9F7CE0187
:1019F000DF91CF911F910F91FF90EF90DF90CF90EB
:101A000008950F931F93CF93DF938C01EB010E94F6
:101A10003D208883C80101960E943D208983CE0124
:101A2000DF91CF911F910F9108951F920F920FB6E2
:101A30000F9211242F933F938F939F93AF93BF9354
:101A40008091F5049091F604A091F704B091F80408
:101A50003091F40423E0230F2D3758F50196A11D92
:101A6000B11D2093F4048093F5049093F604A093A1
:101A7000F704B093F8048091F9049091FA04A091CE
:101A8000FB04B091FC040196A11DB11D8093F904E3
:101A90009093FA04A093FB04B093FC04BF91AF9120
:101AA0009F918F913F912F910F900FBE0F901F909C
:101AB000189526E8230F0296A11DB11DD2CF1F92C3
:101AC0000F920FB60F9211242F933F934F935F9372
:101AD0006F937F938F939F93AF93BF93EF93FF93F6
:101AE0008091B900887F803609F44AC0F0F58832C9
:101AF00009F4A7C018F5803109F49BC0B8F4882315
:101B000009F4F9C0883009F494C0FF91EF91BF91B6
:101B1000AF919F918F917F916F915F914F913F9185
:101B20002F910F900FBE0F901F901895883109F4D8
:101B300088C0803251F78093210514C0803409F4A5
:101B40009DC040F48033B9F38833F9F680932105C2
:101B500085ECB0C0803509F485C0883509F496C09D
:101B6000883499F60E944F0CD0CF883909F48CC084
:101B700038F5883729F050F4883611F0803729F687
:101B800083E0809343051092C90457C0883809F454
:101B90007BC0803919F0803809F0B7CF8091C90433
:101BA000803208F071C0E091C90481E08E0F80930B
:101BB000C9048091BB00F0E0E755FB4F80833DC036
:101BC000803B39F0E0F4803A09F479C0883A09F0B2
:101BD0009CCF84E0809343051092A8041092A70440
:101BE000E091CA04F091CB0409958091A70481117A
:101BF0000FC081E08093A7041092870409C0803C45
:101C000009F4A6CF883C09F4A3CF883B09F07DCF27
:101C1000E091A80481E08E0F8093A804F0E0E957DA
:101C2000FB4F80818093BB009091A8048091A70412
:101C300029C080911E058093BB0085EC8093BC0079
:101C400064CF9091200580911F05981758F5E09179
:101C5000200581E08E0F80932005F0E0E350FB4FDC
:101C60008081E9CFE091200581E08E0F80932005EF
:101C70008091BB00F0E0E350FB4F80839091200502
:101C800080911F059817C8F285E8D8CFE09120050C
:101C900081E08E0F809320058091BB00F0E0E3503F
:101CA000FB4F80838091220581115CCF81E080937E
:101CB0001D0584EA8093BC001092430526CF85EC75
:101CC0008093BC00109243058091C904803230F4A7
:101CD000E091C904F0E0E755FB4F10826091C90420
:101CE00070E0E091CC04F091CD0489EA94E009958C
:101CF0001092C9040ACF1092210534CF10926905C1
:101D00001092680588EE93E0A0E0B0E080936A0549
:101D100090936B05A0936C05B0936D0585E291E0FF
:101D200090936705809366051092F8051092F70569
:101D30001092EE051092ED05109203061092040623
:101D4000109205061092060688EC90E09093F40538
:101D50008093F3058CE090E09093FA058093F90569
:101D60008DE090E09093FC058093FB0561E08CE0B2
:101D70000E945F0261E08091FB050E945F02109269
:101D8000FE051092FD05109200061092FF051092BC
:101D900002061092010682E090E09093F60580938F
:101DA000F5051092E8051092E7051092EA051092E9
:101DB000E9051092EC051092EB0590E080E00E949E
:101DC000C00B2091E7053091E805811195C02115E0
:101DD000310519F0C9010E94CE221092E805109237
:101DE000E7051092EC051092EB051092EA051092AF
:101DF000E9051092740510927805109277051092FB
:101E00007905EEE8F5E01082148213821582369689
:101E100085E0EA3CF807B9F787E091E09093D505B3
:101E20008093D40583E091E09093D7058093D60505
:101E300084E08093D8058093D9052BE031E030937E
:101E4000D3052093D2052AE030E03093DB052093C0
:101E5000DA0524EF31E03093DD052093DC051092A4
:101E6000E0051092DF051092CE051092CF0510927A
:101E7000D0051092D1051092DE0523E431E03093B5
:101E800073052093720590E29093E10531E0309361
:101E9000E20546E655E05093E6054093E5051092CD
:101EA00051051092500547E351E050934F05409380
:101EB0004E0527E2209354051092550522E0209309
:101EC00058058093590530935E0520935F058093F4
:101ED000600580E1809362059093630580E48093C0
:101EE000640580E88093650588E0809361050E9421
:101EF000610880934D0508951092EC051092EB0552
:101F000066E872E0C9010E941D2473CFCF93DF936E
:101F100000D0CDB7DEB7789484B5826084BD84B537
:101F2000816084BD85B5826085BD85B5816085BDD4
:101F300080916E00816080936E001092810080918C
:101F40008100826080938100809181008160809314
:101F50008100809180008160809380008091B10039
:101F600084608093B1008091B00081608093B00064
:101F700080917A00846080937A0080917A008260F8
:101F800080937A0080917A00816080937A008091BA
:101F90007A00806880937A001092C1006FEF7FEF23
:101FA00082E795E00E9498076091E205613208F0AF
:101FB00060E28091E1050E94D8041092CF048093E2
:101FC000CE048091E5059091E605DC01ED91FC9150
:101FD0000284F385E02D09959093E4058093E30551
:101FE0008091E2058230B8F08091E5059091E60598
:101FF000DC01ED91FC910284F385E02D099520E050
:10200000382F8091E3059091E405822B932B9093D8
:10201000E4058093E30586E695E09093530580936D
:10202000520584E18093560594E0909357051092F1
:102030005A0590E490935B0580935C0584E580935A
:102040005D051092CF041092CE0410924A051092B2
:1020500049050E9499048FEF93E09093CB048093FD
:10206000CA0480E094E09093CD048093CC04609106
:10207000550561116091610580915205909153055C
:102080002091540531E030934C0520934B05DC0141
:10209000ED91FC910190F081E02D09958091520520
:1020A000909153050E942D068BE39DE00197F1F777
:1020B00084E08093590582E08093580583E00E9474
:1020C00014078BE496E40197F1F783E00E9414076C
:1020D0000BE113E0C8010197F1F783E00E941407B8
:1020E000C8010197F1F782E00E94140740E068E21E
:1020F0008EE495E00E942D0760915905862F84603B
:10210000809359056C6040E08EE495E00E942D07B5
:102110000E94510760915805862F82608093580570
:10212000666040E08EE495E00E942D071092CF0497
:102130001092CE0410924A05109249050E9499040B
:102140008FEF93E09093CB048093CA0480E094E0F7
:102150009093CD048093CC0462EF74E08AE090E029
:102160000E94010D60EF74E084E190E00E94010D97
:102170006CEE74E08EE190E00E94DB0C68EE74E09F
:1021800088E290E00E94DB0C61E071E082E390E085
:102190000E94010D60E082E00E945F0261E08BE03E
:1021A0000E945F0260E08BE00E94210161E085E017
:1021B0000E945F0261E085E00E945F022091F305CA
:1021C0003091F405032E000C440B550B60E077E8CA
:1021D00083E993E00E94F921CA01B90120E931E0C5
:1021E00040E050E00E94F9212093EF053093F00584
:1021F0004093F1055093F205B2E0EB2EF12C06E08E
:1022000010E0F4E02F2E312CA5E04A2E512C81E471
:1022100080937C0080917A00806480937A00809122
:102220007A0086FDFCCF8091780090917900803211
:10223000934024F562EF74E08AE090E00E94870CFE
:1022400060EF74E084E190E00E94870C6CEE74E033
:102250008EE190E00E94AB0C68EE74E088E290E0C2
:102260000E94AB0C61E071E082E390E00E94870C79
:1022700068E873E180E090E00E9465038091D604F5
:102280009091D704892B09F0CFC00E9401080E94C9
:10229000510760E080E00E945C0789E591E00E94C0
:1022A000120A61E080E00E945C078EE691E00E94E5
:1022B000120A62E080E00E945C0783E891E00E94DD
:1022C000120A63E080E00E945C0788E991E00E94C6
:1022D000120A62E080E00E945C078091D60490912F
:1022E000D704892B09F0A0C00E94610880934D0596
:1022F000209191053091920521303105A1F02230D5
:10230000310559F78434A1F40E94010881E090E07E
:102310009093D7048093D6046AE070E080E090E068
:102320000E946503DACF882319F08093D004EACFA6
:102330009091D004923329F488E790E00E94C00283
:10234000CCCF963319F481E090E0F8CF943349F480
:102350008EEF9FEF0E94C00265E070E080E090E0A9
:10236000DFCF983349F488E89FEF0E94C00261E014
:1023700070E080E090E0D4CF803359F51A82198262
:10238000BE016F5F7F4F8AE090E00E94870C1A8247
:102390001982BE016F5F7F4F8EE190E00E94870C33
:1023A0001A821982BE016F5F7F4F88E290E00E941F
:1023B000870C1A821982BE016F5F7F4F82E390E023
:1023C0000E94870C0E94010864E670E080E090E0C3
:1023D000A7CF813409F081CF8091D104811111C040
:1023E0008091DA049091DB0418161906D4F4019751
:1023F0009093DB048093DA048FEF9FEF0E94C0027A
:10240000EFCF8091DA049091DB0497FF0AC0019628
:102410009093DB048093DA0481E090E00E94C00294
:10242000F0CF0E94010859CF8091D6049091D70433
:10243000019709F050C00E94510760E080E00E94BF
:102440005C078DEA91E00E94120A61E080E00E9440
:102450005C0781EC91E00E94120A62E080E00E9439
:102460005C0786ED91E00E94120A63E080E00E9422
:102470005C0789EE91E00E94120A8091D604909147
:10248000D704019741F50E948E0980934D05813450
:1024900089F0843491F70E9401080E94510710933B
:1024A000D7040093D6046AE070E080E090E00E94D8
:1024B0006503E3CF0E94510760E084E00E945C075F
:1024C0008EEF91E00E94120A0E945107F092D70409
:1024D000E092D604D2CF8091D6049091D70402978F
:1024E00009F021C10E9401080E94510760E083E0C9
:1024F0000E945C078CE092E00E94120A61E084E096
:102500000E945C078CE192E00E94120A63E08AE07C
:102510000E945C0788E292E00E94120A63E080E079
:102520000E945C0783E392E00E94120A62E088E066
:102530000E945C070E9471078091D6049091D70495
:10254000029709F0F0C00E948E0980934D05E0EDDE
:10255000E80FE53188F70E2E000CFF0BEE54FD4E10
:102560000C941822C712D812E712F612051314138E
:1025700023133213411350139C129C129C129C1271
:102580009C129C129C125F139C129C1272130E944C
:1025900001088091EB059091EC05049708F0CCCFF1
:1025A00089E491E00E94EE0B80E30E948207C4CF91
:1025B0000E9401088091EB059091EC05049708F0CA
:1025C000BBCF8CE392E00E94EE0B81E3EECF0E9442
:1025D00001088091EB059091EC05049708F0ACCFD1
:1025E0008EE392E00E94EE0B82E3DFCF0E940108AF
:1025F0008091EB059091EC05049708F09DCF80E465
:1026000092E00E94EE0B83E3D0CF0E9401088091FC
:10261000EB059091EC05049708F08ECF82E492E0F0
:102620000E94EE0B84E3C1CF0E9401088091EB056C
:102630009091EC05049708F07FCF84E492E00E942B
:10264000EE0B85E3B2CF0E9401088091EB059091DB
:10265000EC05049708F070CF86E492E00E94EE0B40
:1026600086E3A3CF0E9401088091EB059091EC05D1
:10267000049708F061CF88E492E00E94EE0B87E3B4
:1026800094CF0E9401088091EB059091EC0504978E
:1026900008F052CF8AE492E00E94EE0B88E385CFE7
:1026A0000E9401088091EB059091EC05049708F0D9
:1026B00043CF8CE492E00E94EE0B89E376CF0E9438
:1026C0001D0C1092F1041092F00462E088E00E9468
:1026D0005C0782E892E00E94120A62E088E00E94B1
:1026E0005C072ACF8091E7059091E8050097B9F043
:1026F0000E94691D7093F1046093F0040E941D0C08
:102700000E94010823E030E03093D7042093D604E0
:102710006AE070E080E090E00E9465030DCF60E029
:1027200070E0CB01E7CF8091D6049091D704039756
:1027300009F028C10E94510760E081E00E945C0717
:102740008EE492E00E94120A61E082E00E945C073F
:1027500081E692E00E94120A63E08AE00E945C0730
:1027600088E292E00E94120A63E080E00E945C0727
:1027700083E392E00E94120A62E088E00E945C0714
:102780008091D6049091D704039709F0FBC00E9472
:1027900071070E948E0980934D05E2EDE80FE73145
:1027A00078F70E2E000CFF0BE852FC4E0C9418220A
:1027B0008714C013EF1300140F141E142D143C14AF
:1027C0004B145A1469147814C013C013C013C013E7
:1027D000C013C013C0139614C013C013A9140E94D1
:1027E00001088091EB059091EC05049708F0C8CFA3
:1027F00089E491E00E94EE0B80E30E948207C0CF43
:102800000E9401088091EB059091EC05049708F077
:10281000B7CF8CE392E00E94EE0B81E3EECF0E94F3
:1028200001088091EB059091EC05049708F0A8CF82
:102830008EE392E00E94EE0B82E3DFCF0E9401085C
:102840008091EB059091EC05049708F099CF80E416
:1028500092E00E94EE0B83E3D0CF0E9401088091AA
:10286000EB059091EC05049708F08ACF82E492E0A2
:102870000E94EE0B84E3C1CF0E9401088091EB051A
:102880009091EC05049708F07BCF84E492E00E94DD
:10289000EE0B85E3B2CF0E9401088091EB05909189
:1028A000EC05049708F06CCF86E492E00E94EE0BF2
:1028B00086E3A3CF0E9401088091EB059091EC057F
:1028C000049708F05DCF88E492E00E94EE0B87E366
:1028D00094CF0E9401088091EB059091EC0504973C
:1028E00008F04ECF8AE492E00E94EE0B88E385CF99
:1028F0000E9401088091EB059091EC05049708F087
:102900003FCF8CE492E00E94EE0B89E376CF0E94E9
:1029100001088091EB059091EC05049708F030CF09
:1029200081E392E00E94EE0B8EE267CF0E940108E5
:102930000E941D0C1092EC041092ED041092EE0413
:102940001092EF0462E080E00E945C0782E792E070
:1029500011CF0E9401080E94430C6093EC04709315
:10296000ED048093EE049093EF040E941D0C3092CE
:10297000D7042092D6046AE070E080E090E00E94E4
:102980006503FECE8091D6049091D704049709F098
:1029900017C10E94510760E080E00E945C0787E851
:1029A00092E00E94120A61E080E00E945C078BE9DD
:1029B00092E00E94120A63E08AE00E945C0788E2CB
:1029C00092E00E94120A63E080E00E945C0783E3C9
:1029D00092E00E94120A62E088E00E945C07809107
:1029E000D6049091D704049709F0EAC00E947107B9
:1029F0000E948E0980934D05E0EDE80FE53178F7F0
:102A00000E2E000CFF0BE95FFA4E0C9418221C15D9
:102A10002D153C154B155A15691578158715961502
:102A2000A515EF14EF14EF14EF14EF14EF14EF14D7
:102A3000B415EF14EF14C7150E9401088091EB053F
:102A40009091EC05029708F0CACF89E491E00E94CA
:102A5000EE0B80E30E948207C2CF0E9401088091A2
:102A6000EB059091EC05029708F0B9CF8CE392E06A
:102A70000E94EE0B81E3EECF0E9401088091EB05EE
:102A80009091EC05029708F0AACF8EE392E00E94A5
:102A9000EE0B82E3DFCF0E9401088091EB0590915D
:102AA000EC05029708F09BCF80E492E00E94EE0BC9
:102AB00083E3D0CF0E9401088091EB059091EC0553
:102AC000029708F08CCF82E492E00E94EE0B84E340
:102AD000C1CF0E9401088091EB059091EC0502970F
:102AE00008F07DCF84E492E00E94EE0B85E3B2CF44
:102AF0000E9401088091EB059091EC05029708F087
:102B00006ECF86E492E00E94EE0B86E3A3CF0E9494
:102B100001088091EB059091EC05029708F05FCFDA
:102B200088E492E00E94EE0B87E394CF0E940108B4
:102B30008091EB059091EC05029708F050CF8AE464
:102B400092E00E94EE0B88E385CF0E9401088091FD
:102B5000EB059091EC05029708F041CF8CE492E0F0
:102B60000E94EE0B89E376CF0E9401080E941D0CA3
:102B70001092E8041092E9041092EA041092EB0417
:102B800062E080E00E945C0782E792E022CF0E9430
:102B900001080E94430C6093E8047093E904809359
:102BA000EA049093EB040E941D0C5092D7044092CB
:102BB000D6046AE070E080E090E00E9465030FCFE9
:102BC0008091D6049091D704059709F086C00E94A1
:102BD0008B070E94510760E080E00E945C078CEA4E
:102BE00092E00E94120A61E080E00E945C0780ECA3
:102BF00092E00E94120A85E892E00E94120A62E0C6
:102C000080E00E945C0785ED92E00E94120A61E07C
:102C100082E10E945C078091DE04882379F18AEECC
:102C200092E00E94120A62E082E10E945C078091B9
:102C3000DD04882331F18AEE92E00E94120A63E0FB
:102C400080E00E945C078CEE92E00E94120ADD2474
:102C5000D3948091D6049091D7040597F1F50E9402
:102C60008E0980934D05843479F40E9451070E94A7
:102C700001081093D7040093D604EBCF85E892E0C7
:102C8000D0CF85E892E0D9CF8234B9F40E94010810
:102C90008091DD048D258093DD0462E082E10E9455
:102CA0005C078091DD04882329F08AEE92E00E947F
:102CB000120ACFCF85E892E0FACF813451F60E9414
:102CC00001088091DE048D258093DE0461E082E1BD
:102CD0000E945C078091DE04E6CF8091D60490913B
:102CE000D704069709F085C00E9401080E948B074F
:102CF0000E94510760E080E00E945C078FEF92E045
:102D00000E94120A60E08CE00E945C078091F0044F
:102D10009091F1040E94E40961E080E00E945C0768
:102D200089E093E00E94120A61E08DE00E945C0756
:102D30006091EC047091ED048091EE049091EF04A9
:102D400042E00E94E80A62E080E00E945C078EE1B7
:102D500093E00E94120A62E08CE00E945C0760919E
:102D6000E8047091E9048091EA049091EB0442E058
:102D70000E94E80A63E080E00E945C0783E393E03E
:102D80000E94120A7BE0C72ED12CE7E0AE2EB12CB8
:102D90008091D6049091D704069759F50E948E0928
:102DA00080934D05823481F0843449F0813481F779
:102DB0000E940108B092D704A092D604E9CFD09225
:102DC000D704C092D604E4CF0E94010860EF74E0FB
:102DD00084E190E00E94870C6CEE74E08EE190E05C
:102DE0000E94AB0C68EE74E088E290E00E94AB0CAD
:102DF000CFCF8091D6049091D704079709F067C090
:102E00000E948B070E94510760E080E00E945C07EF
:102E100088E493E00E94120A61E080E00E945C076F
:102E20008CE593E00E94120A62E080E00E945C0759
:102E30008FE693E00E94120A63E080E00E945C0744
:102E400084E893E00E94120A4AE0642E712C58E054
:102E5000A52EB12C69E0862E912CC090D604D0907E
:102E6000D70437E0C316D10491F50E94610880931E
:102E70004D058333F1F05CF48133A1F0823369F7BF
:102E80000E9401089092D7048092D604E6CF843342
:102E9000B9F0843411F70E940108D092D704C0928F
:102EA000D604DBCF0E940108B092D704A092D604CA
:102EB000D4CF0E9401087092D7046092D604CDCF7F
:102EC0000E940108F092D704E092D604C6CF809108
:102ED000D6049091D704089709F019C10E945107B0
:102EE00060E083E00E945C078CE092E00E94120A9E
:102EF00061E084E00E945C078CE192E00E94120A8B
:102F000063E08AE00E945C0788E292E00E94120A75
:102F100063E080E00E945C0783E392E00E94120A73
:102F200062E088E00E945C070E9471078091D604ED
:102F30009091D704089709F0EAC00E948E09809307
:102F40004D05E0EDE80FE53188F70E2E000CFF0B84
:102F5000E455F84E0C941822C117D217E117F01758
:102F6000FF170E181D182C183B184A18961796179D
:102F70009617961796179617961759189617961725
:102F80006E180E9401088091EB059091EC05049762
:102F900008F0CCCF89E491E00E94EE0B80E30E9420
:102FA0008207C4CF0E9401088091EB059091EC0547
:102FB000049708F0BBCF8CE392E00E94EE0B81E314
:102FC000EECF0E9401088091EB059091EC050497EB
:102FD00008F0ACCF8EE392E00E94EE0B82E3DFCFED
:102FE0000E9401088091EB059091EC05049708F090
:102FF0009DCF80E492E00E94EE0B83E3D0CF0E944D
:1030000001088091EB059091EC05049708F08ECFB4
:1030100082E492E00E94EE0B84E3C1CF0E9401089B
:103020008091EB059091EC05049708F07FCF84E444
:1030300092E00E94EE0B85E3B2CF0E9401088091DE
:10304000EB059091EC05049708F070CF86E492E0D0
:103050000E94EE0B86E3A3CF0E9401088091EB054E
:103060009091EC05049708F061CF88E492E00E940B
:10307000EE0B87E394CF0E9401088091EB059091BD
:10308000EC05049708F052CF8AE492E00E94EE0B20
:1030900088E385CF0E9401088091EB059091EC05B3
:1030A000049708F043CF8CE492E00E94EE0B89E392
:1030B00076CF0E9401080E941D0C1092F10410921C
:1030C000F00462E080E00E945C0782E792E00E94E8
:1030D000120A62E088E00E945C0728CF0E94010883
:1030E0008091E7059091E805009769F00E94691DBD
:1030F0007093F1046093F0040E941D0C1093D704A8
:103100000093D60413CF60E070E0CB01F1CF809143
:10311000D6049091D704099709F020C10E94510765
:1031200060E081E00E945C078EE492E00E94120A57
:1031300061E082E00E945C0781E692E00E94120A50
:1031400063E08AE00E945C0788E292E00E94120A33
:1031500063E080E00E945C0783E392E00E94120A31
:1031600062E088E00E945C078091D6049091D704C9
:10317000099709F0F3C00E9471070E948E0980939D
:103180004D05E2EDE80FE73178F70E2E000CFF0B4E
:10319000E453F74E0C9418227B19B418E318F41872
:1031A00003191219211930193F194E195D196C199B
:1031B000B418B418B418B418B418B418B4188A19D8
:1031C000B418B4189D190E9401088091EB059091E4
:1031D000EC05049708F0C8CF89E491E00E94EE0B5B
:1031E00080E30E948207C0CF0E9401088091EB0516
:1031F0009091EC05049708F0B7CF8CE392E00E9421
:10320000EE0B81E3EECF0E9401088091EB059091D7
:10321000EC05049708F0A8CF8EE392E00E94EE0B35
:1032200082E3DFCF0E9401088091EB059091EC05CD
:10323000049708F099CF80E492E00E94EE0B83E3BC
:10324000D0CF0E9401088091EB059091EC05049786
:1032500008F08ACF82E492E00E94EE0B84E3C1CFB3
:103260000E9401088091EB059091EC05049708F00D
:103270007BCF84E492E00E94EE0B85E3B2CF0E9404
:1032800001088091EB059091EC05049708F06CCF54
:1032900086E492E00E94EE0B86E3A3CF0E94010831
:1032A0008091EB059091EC05049708F05DCF88E4E0
:1032B00092E00E94EE0B87E394CF0E940108809178
:1032C000EB059091EC05049708F04ECF8AE492E06C
:1032D0000E94EE0B88E385CF0E9401088091EB05E8
:1032E0009091EC05049708F03FCF8CE492E00E94A7
:1032F000EE0B89E376CF0E9401088091EB05909157
:10330000EC05049708F030CF81E392E00E94EE0BC9
:103310008EE267CF0E9401080E941D0C1092EC04FF
:103320001092ED041092EE041092EF0462E080E03F
:103330000E945C0782E792E011CF0E94430C6093E9
:10334000EC047093ED048093EE049093EF040E94DC
:103350001D0C1093D7040093D60406CF8091D60499
:103360009091D7040A9709F011C10E94510760E0BB
:1033700080E00E945C0787E892E00E94120A61E008
:1033800080E00E945C078BE992E00E94120A63E0F1
:103390008AE00E945C0788E292E00E94120A63E0E1
:1033A00080E00E945C0783E392E00E94120A62E0E0
:1033B00088E00E945C078091D6049091D7040A9718
:1033C00009F0E4C00E9471070E948E0980934D05A8
:1033D000E0EDE80FE53178F70E2E000CFF0BED5015
:1033E000F64E0C941822081A191A281A371A461A77
:1033F000551A641A731A821A911ADB19DB19DB1930
:10340000DB19DB19DB19DB19A01ADB19DB19B31A7D
:103410000E9401088091EB059091EC05039708F05C
:10342000CACF89E491E00E94EE0B80E30E948207FC
:10343000C2CF0E9401088091EB059091EC050397A3
:1034400008F0B9CF8CE392E00E94EE0B81E3EECF5F
:103450000E9401088091EB059091EC05039708F01C
:10346000AACF8EE392E00E94EE0B82E3DFCF0E94B0
:1034700001088091EB059091EC05039708F09BCF34
:1034800080E492E00E94EE0B83E3D0CF0E9401081B
:103490008091EB059091EC05039708F08CCF82E4C6
:1034A00092E00E94EE0B84E3C1CF0E94010880915C
:1034B000EB059091EC05039708F07DCF84E492E052
:1034C0000E94EE0B85E3B2CF0E9401088091EB05CC
:1034D0009091EC05039708F06ECF86E492E00E948D
:1034E000EE0B86E3A3CF0E9401088091EB0590913B
:1034F000EC05039708F05FCF88E492E00E94EE0BA2
:1035000087E394CF0E9401088091EB059091EC0530
:10351000039708F050CF8AE492E00E94EE0B88E314
:1035200085CF0E9401088091EB059091EC050397EF
:1035300008F041CF8CE492E00E94EE0B89E376CF55
:103540000E9401080E941D0C1092E8041092E904E8
:103550001092EA041092EB0462E080E00E945C07A3
:1035600082E792E022CF0E9401080E94430C609300
:10357000E8047093E9048093EA049093EB040E94BA
:103580001D0C1093D7040093D60415CF8091D60458
:103590009091D7040B9709F0DCC00E94010820919C
:1035A000EC043091ED044091EE045091EF046091F1
:1035B000E8047091E9048091EA049091EB040E9480
:1035C00011210E9483217093E0046093DF040E9424
:1035D000510760E081E00E945C0787E993E00E9468
:1035E000120A61E084E00E945C0789EA93E00E948D
:1035F000120A62E084E00E945C0787EB93E00E947D
:10360000120A63E080E00E945C0785EC93E00E9470
:10361000120A32E1C32ED12C8091D6049091D704A6
:103620000B9719F50E948E0980934D05833279F42A
:1036300061E08BE00E9421010E94010810920001CC
:103640001092D104D092D704C092D604E5CF8A322A
:1036500019F761E08BE00E9421010E94010881E0DE
:10366000809300018093D104EDCF1092DB0410927F
:10367000DA040E94510761E083E00E945C0785E85C
:1036800092E00E94120A60E080E00E945C0789EDEF
:1036900093E00E94120A61E080E00E945C078DEED8
:1036A00093E00E94120A61E08AE00E945C0787EFC3
:1036B00093E00E94120A62E080E00E945C0781E0D1
:1036C00094E00E94120A63E080E00E945C078BE0B5
:1036D00094E00E94120A64E670E080E090E00E94AC
:1036E000650320E030E044EB53E46091EC0470911A
:1036F000ED048091EE049091EF040E947C1F26EE71
:1037000036EB40E351E40E94112126E636E646EE10
:103710005FE30E947C1F2FE832EC45E15FE30E94EB
:1037200011210E9483217093E2046093E10462EF0F
:1037300074E08AE090E00E94010D61E071E082E3B4
:1037400090E00E94010D0E94140A1092DB04109276
:10375000DA041092E7041092E60482E00E94F80076
:103760000097A1F42091E4043091E5042130310563
:1037700069F421E02093E3042091F2043091F304F2
:103780002F5F3F4F3093F3042093F2049093E504AE
:103790008093E4048091E304882309F472C10E94B9
:1037A000140A1092E3042091F2043091F304809102
:1037B000F0049091F1042817390709F098C01A8293
:1037C0001982BE016F5F7F4F8AE090E00E94870CF4
:1037D0001A821982BE016F5F7F4F8EE190E00E94D6
:1037E000870C1A821982BE016F5F7F4F88E290E0DA
:1037F0000E94870C1A821982BE016F5F7F4F82E39D
:1038000090E00E94870C60E08BE00E9421010E9402
:10381000510785E194E00E94120A61E080E00E9475
:103820005C0789E294E00E94120A61E085E00E9450
:103830005C078091F0049091F1040E94E40961E03A
:103840008AE00E945C078EE294E00E94120A62E025
:1038500081E00E945C078091D8049091D9040E9475
:10386000E40988E394E00E94120A63E081E00E9488
:103870005C078AE494E00E94120A62E370E080E050
:1038800090E00E9465038091D6049091D7044297FE
:1038900071F50E9497038090D2049090D304A09079
:1038A000D404B090D5049B01AC01281939094A0908
:1038B0005B0949015A0134EC831639E09306A104EF
:1038C000B10450F06093D2047093D3048093D40475
:1038D0009093D5040E9401080E94610880934D05D1
:1038E000843489F61092D7041092D604CCCF20915C
:1038F000F2043091F3048091F0049091F1042817C0
:1039000039070CF0BEC080910001882301F1C090FE
:10391000E604D090E7048091E1049091E204C81697
:10392000D906ACF58FEF9FEF0E94C0028091DA04B8
:103930009091DB0401979093DB048093DA044FEFBE
:10394000C41AD40AD092E704C092E604E0CFC09033
:10395000E604D090E7048091E1049091E204C81657
:10396000D906ACF481E090E00E94C0028091DA04B4
:103970009091DB0401969093DB048093DA045FEF6F
:10398000C51AD50AD092E704C092E604E0CF809130
:10399000F2049091F3046091DF047091E0040E94BE
:1039A000C321892B99F58091010190910201019623
:1039B00090930201809301010E94140A80910001FA
:1039C00091E08927809300018091DE048823F1F043
:1039D00060E08BE00E94210161E08AE00E945C07C8
:1039E0008CE594E00E94120A0E9461088434E1F799
:1039F0000E94010861E08AE00E945C0787EF93E083
:103A00000E94120A61E08BE00E9421018091DD0496
:103A10008823D1F08091F0049091F10497FD0196F4
:103A2000959587952091F2043091F30482179307BE
:103A300059F481E08093DC0461E08AE00E945C0735
:103A40008CE594E00E94120A8091DC048823C9F07E
:103A500060E08BE00E9421010E9461088434A1F79C
:103A600061E08AE00E945C0787EF93E00E94120AFF
:103A700061E08BE00E9421010E9401081092DC04A9
:103A8000E3CF0E946108843469F40E94010861E078
:103A90008AE00E945C078CE594E00E94120A81E0B3
:103AA0008093DC0480E090E0892B11F40C940711E2
:103AB0000E9400000C9401118091E7059091E805A7
:103AC000009711F00C94CE220895662777270C9466
:103AD000A51D1F93FC0199278827BC01E89411912B
:103AE0001032E9F3193010F01E30C8F31B3251F0D8
:103AF0001D3249F4689406C00E94901D610F711D2B
:103B0000811D911D119110531A30B0F33EF4909520
:103B10008095709561957F4F8F4F9F4F1F910895AE
:103B2000592F482F372F262F660F771F881F991F71
:103B3000660F771F881F991F620F731F841F951FC1
:103B4000660F771F881F991F0895B0E0A0E0EBEA89
:103B5000FDE10C9464205C017B016115710519F095
:103B6000DB018D939C9385010F5F1F4FF501D08181
:103B70008D2F90E00E94F51E6C01892BB9F5DD3286
:103B8000B9F50F5F1F4FD5011196DC91C1E05801C7
:103B9000F1E0AF1AB10843E050E060E770E0C50122
:103BA0000E94FE1E892B69F5680182E0C80ED11CB7
:103BB00045E050E06BE670E0C6010E94FE1E892BD6
:103BC00021F4680197E0C90ED11CE114F10419F049
:103BD000D701CD92DC9260E070E080E89FEFC111E8
:103BE000FFC060E070E080E89FE7FAC05801BBCFFB
:103BF000DB3229F485010E5F1F4FF501D181C0E052
:103C0000C6CF43E050E068E670E0C5010E94FE1EAA
:103C1000892BE9F0F80110E000E020E030E0A90194
:103C20005F01B0ED8B2E8D0E89E08815C8F19C2EBA
:103C3000689491F88C2F8870C2FF16C0811102C061
:103C40000F5F1F4F3196D501DC91C92DE9CFE114EB
:103C5000F10429F00E5F1F4FF7011183008360E02C
:103C600070E080EC9FE7BCC0882311F0015011097F
:103C7000A5E0B0E00E9453209B01AC01220F331F4E
:103C8000441F551F280D311D411D511D283999E92B
:103C90003907490799E15907A8F2C6609C2ED2CF8F
:103CA000AEEF8A1206C0C3FD3CC09C2E689493F808
:103CB000C9CFDF7DD534A9F580818D3239F4C0615B
:103CC000DF011296818162E070E006C0DF018B3275
:103CD000C1F3119661E070E080535D01A61AB70A46
:103CE0008A30F8F4E0E8CE16ECE0DE065CF4B601CB
:103CF000660F771F660F771FC60ED71ECC0CDD1C14
:103D0000C80ED11C5D01FFEFAF1ABF0A8C91805322
:103D10008A30A8F1C4FF03C0D194C194D1080C0D1E
:103D20001D1DC1FF09C0E114F10431F081E0A81AA2
:103D3000B108D701AD92BC92CA01B9010E941B1F04
:103D4000C370C33009F490584B015C0120E030E0AF
:103D5000A9010E94161F882309F440C0CFE9D0E0D2
:103D600017FF05C0119501951109C7E8D0E06E0154
:103D7000B8E1CB1AD10880E2E82EF12C0FC0D501B2
:103D8000B1CFFE0125913591459154910E191F092E
:103D9000C501B4010E947C1F4B015C01D501C40127
:103DA0000E151F0574F72497F594E794CC16DD06DD
:103DB000A9F78A2F880F8B2F881F8F3F49F020E0AB
:103DC00030E0A901C501B4010E94161F811106C08F
:103DD00082E290E09093080680930706C501B40143
:103DE000CDB7DEB7ECE00C94802091110C94E91F64
:103DF000803219F089508550C8F70895FB01DC0125
:103E00004150504088F08D9181341CF08B350CF47A
:103E1000805E659161341CF06B350CF4605E861B2E
:103E2000611171F3990B0895881BFCCF0E94581FF4
:103E300008F481E00895E89409C097FB3EF490955A
:103E40008095709561957F4F8F4F9F4F9923A9F073
:103E5000F92F96E9BB279395F69587957795679502
:103E6000B795F111F8CFFAF4BB0F11F460FF1BC046
:103E70006F5F7F4F8F4F9F4F16C0882311F096E9D9
:103E800011C0772321F09EE8872F762F05C0662387
:103E900071F096E8862F70E060E02AF09A95660F40
:103EA000771F881FDAF7880F9695879597F90895F9
:103EB000990F0008550FAA0BE0E8FEEF161617063B
:103EC000E807F907C0F012161306E407F50798F0A3
:103ED000621B730B840B950B39F40A2661F0232BBC
:103EE000242B252B21F408950A2609F4A140A69538
:103EF0008FEF811D811D08950E948F1F0C94032058
:103F00000E94F51F38F00E94FC1F20F0952311F04D
:103F10000C94EC1F0C94F21F11240C9437200E9477
:103F2000142070F3959FC1F3950F50E0551F629FC9
:103F3000F001729FBB27F00DB11D639FAA27F00D02
:103F4000B11DAA1F649F6627B00DA11D661F829F29
:103F50002227B00DA11D621F739FB00DA11D621F0E
:103F6000839FA00D611D221F749F3327A00D611D2B
:103F7000231F849F600D211D822F762F6A2F11240D
:103F80009F5750409AF0F1F088234AF0EE0FFF1F40
:103F9000BB1F661F771F881F91505040A9F79E3F97
:103FA000510580F00C94EC1F0C9437205F3FE4F334
:103FB000983ED4F3869577956795B795F795E795ED
:103FC0009F5FC1F7FE2B880F911D9695879597F9F6
:103FD000089599278827089597F99F6780E870E0EA
:103FE00060E008959FEF80EC089500240A9416166F
:103FF000170618060906089500240A9412161306D7
:10400000140605060895092E0394000C11F4882364
:1040100052F0BB0F40F4BF2B11F460FF04C06F5F80
:104020007F4F8F4F9F4F089557FD9058440F551F56
:1040300059F05F3F71F04795880F97FB991F61F02A
:104040009F3F79F087950895121613061406551FA1
:10405000F2CF4695F1DF08C0161617061806991F0D
:10406000F1CF86957105610508940895E894BB2702
:1040700066277727CB0197F90895F999FECF92BD6E
:1040800081BDF89A992780B50895262FF999FECF1A
:104090001FBA92BD81BD20BD0FB6F894FA9AF99A65
:1040A0000FBE019608950E949520A59F900DB49F84
:1040B000900DA49F800D911D112408952F923F9281
:1040C0004F925F926F927F928F929F92AF92BF9228
:1040D000CF92DF92EF92FF920F931F93CF93DF93D4
:1040E000CDB7DEB7CA1BDB0B0FB6F894DEBF0FBE31
:1040F000CDBF09942A88398848885F846E847D847E
:104100008C849B84AA84B984C884DF80EE80FD807F
:104110000C811B81AA81B981CE0FD11D0FB6F894F5
:10412000DEBF0FBECDBFED010895A29FB001B39FCA
:10413000C001A39F700D811D1124911DB29F700DB0
:10414000811D1124911D08955058BB27AA270E9454
:10415000BC200C9403200E94F51F38F00E94FC1F25
:1041600020F039F49F3F19F426F40C94F21F0EF45A
:10417000E095E7FB0C94EC1FE92F0E94142058F304
:10418000BA17620773078407950720F079F4A6F53C
:104190000C9436200EF4E0950B2EBA2FA02D0B01B7
:1041A000B90190010C01CA01A0011124FF27591B7C
:1041B00099F0593F50F4503E68F11A16F040A22F82
:1041C000232F342F4427585FF3CF469537952795F3
:1041D000A795F0405395C9F77EF41F16BA0B620BF2
:1041E000730B840BBAF09150A1F0FF0FBB1F661F39
:1041F000771F881FC2F70EC0BA0F621F731F841F7C
:1042000048F4879577956795B795F7959E3F08F0A1
:10421000B0CF9395880F08F09927EE0F9795879563
:1042200008950E9425210C9403200E94FC1F58F041
:104230000E94F51F40F029F45F3F29F00C94EC1F19
:1042400051110C9437200C94F21F0E94142068F333
:104250009923B1F3552391F3951B550BBB27AA273F
:1042600062177307840738F09F5F5F4F220F331F79
:10427000441FAA1FA9F335D00E2E3AF0E0E832D041
:1042800091505040E695001CCAF72BD0FE2F29D044
:10429000660F771F881FBB1F261737074807AB0716
:1042A000B0E809F0BB0B802DBF01FF2793585F4F8B
:1042B0003AF09E3F510578F00C94EC1F0C94372097
:1042C0005F3FE4F3983ED4F3869577956795B7956D
:1042D000F7959F5FC9F7880F911D9695879597F978
:1042E0000895E1E0660F771F881FBB1F62177307F1
:1042F0008407BA0720F0621B730B840BBA0BEE1F06
:1043000088F7E09508950E948A216894B1110C9471
:10431000372008950E941C2088F09F5798F0B92FED
:104320009927B751B0F0E1F0660F771F881F991FEA
:104330001AF0BA95C9F714C0B13091F00E94362036
:10434000B1E008950C943620672F782F8827B85F46
:1043500039F0B93FCCF3869577956795B395D9F742
:104360003EF490958095709561957F4F8F4F9F4F4C
:1043700008950E94581F08F48FEF08950E94581F57
:10438000880B990B089597FB072E16F4009407D01D
:1043900077FD09D00E941E2207FC05D03EF49095BF
:1043A00081959F4F0895709561957F4F0895A1E283
:1043B0001A2EAA1BBB1BFD010DC0AA1FBB1FEE1F9F
:1043C000FF1FA217B307E407F50720F0A21BB30BEA
:1043D000E40BF50B661F771F881F991F1A9469F766
:1043E00060957095809590959B01AC01BD01CF01C2
:1043F0000895052E97FB1EF400940E94102257FD8D
:1044000007D00E94D72107FC03D04EF40C94102251
:1044100050954095309521953F4F4F4F5F4F0895F0
:1044200090958095709561957F4F8F4F9F4F089520
:10443000EE0FFF1F0590F491E02D0994AA1BBB1B02
:1044400051E107C0AA1FBB1FA617B70710F0A61B94
:10445000B70B881F991F5A95A9F780959095BC01B5
:10446000CD0108950F931F93CF93DF938230910571
:1044700010F482E090E0E0910B06F0910C0630E041
:1044800020E0B0E0A0E0309799F42115310509F45F
:104490004AC0281B390B24303105D8F58A819B810D
:1044A0006115710589F1FB0193838283FE0111C0BF
:1044B000408151810281138148175907E0F0481764
:1044C000590799F4109761F012960C93129713966E
:1044D0001C933296CF01DF91CF911F910F910895D8
:1044E00000930B0610930C06F4CF2115310551F003
:1044F0004217530738F0A901DB019A01BD01DF0122
:10450000F801C1CFEF01F9CF90930C0680930B0611
:10451000CDCFFE01E20FF31F819391932250310919
:1045200039832883D7CF2091090630910A06232B9F
:1045300041F420911D0130911E0130930A06209311
:10454000090620911B0130911C012115310541F410
:104550002DB73EB740911F0150912001241B350B10
:10456000E0910906F0910A06E217F307A0F42E1B6A
:104570003F0B2817390778F0AC014E5F5F4F2417C7
:10458000350748F04E0F5F1F50930A064093090607
:10459000819391939FCFF0E0E0E09CCFCF93DF93A6
:1045A0000097E9F0FC01329713821282A0910B066A
:1045B000B0910C06ED0130E020E01097A1F42081CD
:1045C0003181820F931F2091090630910A06281726
:1045D000390709F061C0F0930A06E0930906DF91FC
:1045E000CF910895EA01CE17DF07E8F54A815B8194
:1045F0009E0141155105B1F7E901FB83EA83499119
:104600005991C40FD51FEC17FD0761F4808191818A
:104610000296840F951FE901998388838281938193
:104620009B838A83F0E0E0E012968D919C91139732
:104630000097B9F52D913C911197CD010296820F0B
:10464000931F2091090630910A062817390739F679
:10465000309751F510920C0610920B06B0930A0693
:10466000A0930906BCCFD383C28340815181840FBC
:10467000951FC817D90761F44E5F5F4F88819981F4
:10468000480F591F518340838A819B819383828382
:104690002115310509F0B0CFF0930C06E0930B061D
:1046A0009ECFFD01DC01C0CF13821282D7CFB0E0D4
:1046B000A0E0EDE5F3E20C9460208C01009751F44A
:1046C000CB010E9432228C01C801CDB7DEB7E0E1F8
:1046D0000C947C20FC01E60FF71F9C01225031094D
:1046E000E217F30708F49DC0D901CD91DC91119731
:1046F000C617D70798F0C530D10530F3CE0104971F
:104700008617970708F3C61BD70B2297C193D1933F
:104710006D937C93CF010E94CE22D6CF5B01AC1A61
:10472000BD0A4C018C0E9D1EA0910B06B0910C068B
:10473000512C412CF12CE12C109731F58091090678
:1047400090910A068815990509F05CC0461657062F
:1047500008F058C080911B0190911C01009741F412
:104760008DB79EB740911F0150912001841B950B7E
:10477000E817F90708F055C0F0930A06E093090618
:10478000F90171836083A0CF8D919C91119712964E
:104790006C90129713967C901397A815B90559F54C
:1047A0006C0142E0C40ED11CCA14DB0420F1AC0140
:1047B0004A195B09DA011296159780F062827382BA
:1047C00051834083D9016D937C93E114F10471F01E
:1047D000D7011396FC93EE93129776CF22968C0F07
:1047E0009D1FF90191838083F301EFCFF0930C06B5
:1047F000E0930B0669CF4816590608F42C017D0199
:10480000D3019ACFCB010E9432227C01009749F05C
:10481000AE01B8010E941424C8010E94CE22870173
:1048200053CF10E000E050CFFB01DC0102C001904B
:104830000D9241505040D8F70895FB01DC010190E2
:104840000D920020E1F7089510E0C0E8D0E004C028
:10485000FE010E9418222196C138D107C9F7F894A9
:02486000FFCF88
:10486200010100070605040302010031323341341D
:104872003536423738392E2A30234400000D06805F
:104882000000000000FE05D1059507A705CA05B77F
:1048920005A805000000007C0701049507710400CB
:1048A200000000CE00DB070F0830002F006E616EA3
:1048B20000696E66006F7666003D454C4554524F66
:1048C2004E49434120204D41544941533D00416AE4
:1048D200757374652061206775696120646520665F
:1048E200696F0070617261206F20706F6E746F204B
:1048F200696E696369616C00454E542E3A2070619D
:10490200726120636F6E74696E7561720020455327
:10491200434F4C484120554D41204F5043414F3A5F
:1049220000412E3A205061726120636F6E666967A2
:10493200757261722000454E542E3A2050617261A8
:1049420020696E696369617200636F6D20646164DE
:104952006F73206578697374656E74657300434F75
:104962004E464947555241434F4553004469676992
:104972007465206F206E756D65726F0064652065C9
:104982007370697261733A00454E543A20436F6EF8
:10499200742E00413A20417061676100310032009B
:1049A20033003400350036003700380039004469DE
:1049B200676974652061206269746F6C6120646F3D
:1049C2000066696F20656D206D696C696D65747232
:1049D2006F002020202020202020202020202020A6
:1049E200202020202020004C6172677572612064B3
:1049F2006F20636172726574656C00202020656DA2
:104A0200206D696C696D6574726F3A0049534F4C41
:104A12004143414F20504F522043414D41444100B8
:104A220041203D2049736F6C61722020202020209C
:104A3200202820290042203D205461702043656EC9
:104A42007472616C202028202900580044203D20E7
:104A52007061726120636F6E74696E756172004578
:104A62007370697261733A200046696F3A202020A0
:104A720020202020202020202020206D6D00436156
:104A820072726574656C3A2020202020202020203C
:104A92006D6D00412D636F727269676520454E54DA
:104AA2002D696E696369610031202D20636F727216
:104AB20069676520657370697261730032202D2009
:104AC200636F7272696765206269746F6C6100332B
:104AD200202D20636F72726967652063617272654F
:104AE20074656C0034202D20636F7272696769727D
:104AF20020746F646F73004553434F4C4841204FFD
:104B02002053454E5449444F0050415241202049C0
:104B12004E4943494152004F20656E726F6C616D80
:104B2200656E746F0020455351203C2D2D204F554A
:104B3200202D2D3E204449520050524F432E20201A
:104B4200454D20414E44414D454E544F0053544132
:104B520054555320203D00456E726F6C616E646F38
:104B62000045535049524153203D0043414D414479
:104B72004153203D002050726F636573736F206351
:104B82006F6E636C7569646F00636F6D3A00457395
:104B92007069726173206500202063616D616461D8
:104BA200733A20454E5445522000706172612020B4
:104BB2006E6F766120426F62696E610020205061E3
:064BC200757361646F00D1
:00000001FF
